:0300000002089063
:0C089000787FE4F6D8FD7581580205243D
:1007E7000814080704040700DFE90406010280C0B3
:0F084700AB2AAA2BA92C852D827583000201F8FC
:100557007F0F12074C7F381206F512000612057836
:100567001205789007F3E493FF1206F57F0202075E
:100577004C7F0E1206F51200067F061206F51200D2
:0205870006224A
:06047D008B248A2589266C
:10048300ED75F008A42440FF1206F5E4F527AB242C
:10049300AA25A926AF27EF3395E08F82F5831201B2
:1004A300F8FF1208A80527C3E5276480948840DE77
:0504B3007F800206F548
:1006F5008FA0C293D294C2949007F3E4936F6006DF
:0F070500A3E493B507057F0202074C12000622FA
:0B08A8008FA0D293D294C294020006ED
:06066A008B2A8A2B892C6B
:10067000E4F52D120847FF6013B40A051207AC8099
:0C06800007120847FF1208A8052D80E7AC
:01068C00224B
:10034000E4FDEF75F00A84E5F02430FE74272DF803
:10035000A606EF75F00A84FE7010C3ED64809483E6
:10036000500874282DF8E4F68006AF060DBD03D2C0
:100370007B007A0079271204F07B007A007927024B
:02038000066A0B
:0604F0008B2A8A2B892CE7
:1004F600E4FFEFC39D5026AB2AAA2BA92C8F8212AC
:100506000850FE8D821208508F82758300120225D4
:0D0516008D82758300EE1202250F1D80D529
:0105230022B5
:1007AC002000059007F680039007F5E493FF1206EE
:0407BC00F5B2002270
:100731002050505050685061000814080704040705
:0B07410000DFE90406010280C07657CB
:0708F300AB24AA25A926226F
:0908C8007BFF7A07793102066A10
:1005BB001201688B428A4389441201DF2402FF1225
:1005CB000340E4FF1208A87F201208A8AB42AA43FD
:0E05DB00A9441201DFFF1203407F250208A889
:10000E00900748E493FF1206F51202F48B248A251A
:10001E0089269000021200BA9000011200BA120155
:10002E00DFFF1203407F201208A8900749E493FFD8
:10003E001206F51208F39000041200CD900005127E
:10004E0000CD9000061201F8FF1203401208F312C1
:10005E0001DF7F011200E01201DF7F021200A99082
:10006E0000011201F87F031200E09000011201F866
:10007E007F041200A99000021201F8540FFD7F05B3
:10008E001206411208F39000021201F875F00A846C
:0B009E00540FFD7F061206410208C847
:1000A90075F00A84540FFD120641AB24AA25A9262E
:1000B900221201F8FF1203407F3A1208A8AB24AAC2
:1000C90025A926221201F8FF1203407F2F1208A842
:1000D900AB24AA25A92622540FFD120641AB24AA56
:0400E90025A92622FD
:100524001209067FFF12074C12089C120883120559
:1005340057C2911209017BFF7A07793AE4FD12044C
:100544007D12077E12000E7FFF12074C7FFF1207F9
:030554004C80F1E7
:1007F7000814080704040700DFE90406010280C0A3
:0B08B300E557131313541F243AF822DA
:10016800C2877F1412074CD2872087FD3087FD2075
:1001780087FDE4F5571208B3C000E6FF25E0D0007C
:10018800F63087FD1208171208B3E6FFA287E4339A
:100198004FF62087FD0557E557C3942840D7E53A21
:1001A800253CFFE433FE7C00EFB53E24ECB5062089
:1001B800AF3A1203407F251208A87F201208A8AF83
:1001C8003C120340E4FF1208A87B007A0079002261
:0601D8007B007AFF79FFB5
:0101DE0022FE
:100807000814080704040700DFE90406010280C092
:0D088300D288D2A8D2AFD28AD2AAC29122C6
:0908D100209203D29122C291226F
:03000300020247AF
:10024700C0E0C0F0C083C08263A201C083C082C087
:10025700D075D000C000C001C002C003C004C005F3
:04026700C006C00706
:10026B00209215C291752E007FC812074C052EE502
:08027B002EC3941940F2D29148
:10028300D007D006D005D004D003D002D001D000CF
:10029300D0D0D082D08363A201D082D083D0F0D0DB
:0202A300E03247
:03000B000202A549
:1002A500C0E0C0F0C083C08263A201C083C082C029
:1002B500D075D000C000C001C002C003C004C00595
:1002C500C006C007900813E493FF1206F5D007D0C7
:1002D50006D005D004D003D002D001D000D0D0D0B4
:0F02E50082D08363A201D082D083D0F0D0E032E8
:0409060043890122FE
:10074C00E4FEEEC39F5010758CFC758A17D28C306A
:09075C008DFDC28D0E80EBC28CF4
:010765002271
:050006000000000022D3
:10081700758CFF758AF1D28C308DFDC28CC28D220A
:01090A0022CA
:100827000814080704040700DFE90406010280C072
:05090100D282D2832226
:0F085600D282D283120006C282120006C283220F
:0F086500C283C282120006D283120006D2822200
:0403C4008F288D29C8
:1003C800752A01E52825E0F528331203F9052AC323
:1003D800E52A6480948840EBE52924FF1203F9D2CA
:1003E80082D283A282E433F52B120006C283AF2B9C
:0B03F800229282D283120006C28322F0
:020441008F2802
:10044300E4F52AD282F529E52A25E0F52AD283A20A
:1004530082E433422A120006C2830529C3E52964D4
:1004630080948840E2E528B40104D2828002C282EB
:09047300D283120006C283AF2AF5
:01047C00225D
:0205E9008F2859
:1005EB00E4F529E528339282D283120006C283E513
:1005FB002825E0F5280529C3E5296480948840E384
:09060B00D282D283120006C283E0
:0106140022C3
:10061500755108120856E4FDAF511203C48F5212EA
:100625000865E552700AAF511203407F201208A8F1
:0B0635000551C3E551648094F840D8E3
:010640002297
:1007C0003A2000760814080704040700DFE904064D
:0407D000010280C0E2
:0A08BE000508C3E508648094962243
:1006D3001206E67FE01205E91206E67FB61205E987
:1006E3000208651208569007C3E493FFE4FD120362
:0206F300C4221F
:1000ED001208569007C3E493FFE4FD1203C47FF09A
:1000FD001205E91208567D017F761203C4E4F50856
:10010D00E4FF12015D1208BE40F67F0112015D127F
:10011D000865E4F508AF081208E37BFF7A0779C09C
:10012D0012068D74092508F8E6FF1203827F0D1261
:10013D0008E37F0A1208E31208BE40D9AB00AA00FB
:0F014D00A9001201DFFF1203407B007A0079093D
:0C015C002212044174092508F8A60722AD
:100837000814080704040700DFE90406010280C062
:0C089C00438920759850758DFFD28E2284
:10038200E4FDEF75F00A84E5F02430FE74452DF8A3
:10039200A606EF75F00A84FE7010C3ED64809483A4
:1003A200500874462DF8E4F68006AF060DBD03D260
:1003B2007B007A0079451204F07B007A00794502CD
:0203C200068DA6
:06068D008B488A49894AEE
:10069300E4FFAB48AA49A94A8F827583001201F887
:0C06A300600AF5993099FDC2990F80E6BD
:0106AF002228
:0808E3008F993099FDC29922A2
:0808EB003098FDC298AF99227C
:01090B005794
:0708FA0090090BE493FF22BB
:1006B0008F4B8D4C8B4D1208561208FAE4FD120335
:1006C000C4AF4B1205E9AF4C1205E9AF4D1205E975
:0306D000020865B8
:0808DA008B358A3689378D3811
:0108E20022F3
:1004B800E4F550F54EE4F54FAB50AD4FAF4E120694
:1004C800B0635001AF4E1203827F201208E37F0A07
:1004D80012074C054FE54FC394FF40DC054EE54E2F
:0704E800C3940F40D07F0018
:0104EF0022EA
:10058900E4F553E4F554AD54AF5312071412038242
:100599007F201208E30554E554C394FF40E87F0D1A
:1005A9001208E37F0A1208E30553E553D3940F4079
:0105B900D26F
:0105BA00221E
:100766001208561208FA7D011203C47F01120441D1
:070776008F58120865AF580F
:01077D002259
:040714008F558D561A
:100718001208561208FAE4FD1203C4AF551205E98F
:08072800AF561205E912076645
:0107300022A6
:10077E00120796E4FD7F0A1206417D017F0C1206D8
:08078E00417D077F0B020641CB
:10079600E4F524E4FDAF241206410524C3E52464F0
:0507A60080948840EE84
:0107AB00222B
:10064100C2B6E4FEEF3392B7D2B5EF25E0FFC2B5F3
:100651000EBE08F0E4FEED3392B7D2B5ED25E0FD14
:08066100C2B50EBE08F0D2B6CE
:01066900226E
:1007D400EF75F00A84C454F0FEEF75F00A84EE2538
:0307E400F0FF2201
:0F087400EFC4540F75F00AA4FEEF540F2EFF22AD
:1002F400120856E4FD7F681203C4E4FF1205E912F4
:1003040008651208567D017F681203C4E4F527E4EA
:10031400FF1203320527C3E5276480948740F07FEA
:0D032400011203321208657B007A00792F68
:0F03310022120441120874742F2527F8A6072200
:060403008B3E8A3F894098
:100409001208567D017F681203C4E4FF1205E9E46E
:10041900F541AB3EAA3FA940AE02AF01EF4E6015D0
:10042900AF41EF3395E08F82F5831201F8FF120592
:08043900E9054180DD020865C0
:1001DF00BB010689828A83E0225002E722BBFE021E
:0901EF00E32289828A83E4932251
:1001F800BB010CE58229F582E5833AF583E02250BC
:1002080006E92582F8E622BBFE06E92582F8E22205
:0D021800E58229F582E5833AF583E493221F
:10022500F8BB010DE58229F582E5833AF583E8F00F
:10023500225006E92582C8F622BBFE05E92582C8BB
:02024500F222A3
:00000001FF
