:0300000002077A7A
:0C077A00787FE4F6D8FD75814E0207C1BF
:100EFA00AB09AA0AA90B850C827583001202AEFF00
:010F0A0022C4
:100C9F007F0F120E977F38120CCD120FD2120CBC91
:100CAF00120CBC7F01120CCD7F02020E977F0E1229
:0E0CBF000CCD120FD27F06120CCD120FD222D6
:060B5C008B1C8A1D891E9E
:100B6200ED75F008A42440FF120CCDE4F51FAB1C78
:100B7200AA1DA91EAF1FEF3395E08F82F5831202E3
:100B8200AEFF120D71051FC3E51F6480948840DE1D
:050B92007F80020CCD84
:100CCD008F0D850DA0C293D294120FD2C294E50D53
:100CDD0064016011E50D6402600BE50D6480600533
:0B0CED00E50DB4C0057F04120E972235
:100D71008F0D850DA0D293D294120FD2C294E50D9E
:100D8100C39430400CE50DD3943950057F03120E06
:070D910097120FD2020FD2EE
:060DFF008B098A0A890B32
:100E0500E4F50C120EFA6012B40A05120F1B8006E7
:0A0E1500120EFA120D71050C80E9AF
:010E1F0022B0
:060FC000120ADE020DFF23
:0F0F1B002000047FC080027F80120CCDB2002224
:100C70004D41583A20004D494E3A20006AB2670172
:100C8000FC18982BD6770BD009B40076FFF93C8C72
:0F0C9000C6F81770574D41582F4D494E3A200066
:100E2000AF3BAE3AAD39AC38E47B64FAF9F8020A6C
:100E300057E47BE87A03F9F8AF37AE36AD35AC341A
:010E4000228F
:0E0F5700C3EF6480948A5005E4FF120FC0229D
:1005CF007F02120CCD9000021206879000021206D5
:1005DF00AF7F3A120D719000011206879000011241
:1005EF0006AF7F3A120D71AB31AA32A933120295C1
:1005FF001206B71202951206CF120E20120FC07FED
:10060F002E120D71120E20AF03120FC0E4FF120D48
:10061F00717FC0120CCD90000412069B9000041243
:10062F0006C290000512069B9000051206C2AB3160
:10063F00AA32A9339000061202AE1206B790000636
:10064F001202AE1206CF120E31120A57120FC0123B
:10065F000E31120A57AC00AD01AE02AF03120E28D5
:10066F00120FC07F2E120D71120E38120E28AF030B
:10067F00120FC07F20020D71AB31AA32A9331202C3
:10068F00AEFF120F57AB31AA32A93322AB31AA32C8
:10069F00A9331202AEFF120F57AB31AA32A9332280
:1006AF001202AEFF120FC022FF120F57AB31AA3248
:1006BF00A933221202AEFF120FC07F2F120D71222B
:0A06CF00FF120FC07F20120D7122F0
:1008C6007F02120914E4FDFF120E5F120FC0E4FF4F
:1008D600120D717F20120D717D0112090BE4FF12BA
:1008E6000D717FC01209147D0212090B7F25120DAE
:1008F600717F20120D717D03E4FF120E5F120FC08F
:050906007F25020D71C8
:10090B00E4FF120E5F120FC022120CCD7BFF7A0C8C
:06091B007995120DFF2288
:100A9B007F01120CCD7BFF7A0C7970120DFF75085C
:100AAB0004120ACC948740F97FC0120CCD7BFF7ADD
:100ABB000C7976120DFF750807120ACC948A40F94F
:100ACB0022AD08E4FF120E5F120FC00508C3E50844
:030ADB0064802212
:10080600E4F512AD12E4FF120E5F74082512F8A685
:10081600070512C3E5126480948A40E7120E20A8E9
:1008260004A905AA06AB07AF08E4FCFDFED3120433
:10083600354005E4FD12085C120E20A804A905AA9D
:1008460006AB07AF09E4FCFDFEC312043550067D76
:0508560001E412085C42
:0D085B0022AB3BFF120D497F0F120E9722BA
:100DBB001209C78B318A3289331204968F3B8E3AD4
:100DCB008D398C381200068F378E368D358C340268
:020DDB000DDD2C
:100A1300120FDC120F7E120F65120C9FC291120F80
:100A2300D7120E417DF57F64120E7C7DF47FFF1299
:100A33000E7C1205CF120DBB120806120EB1300048
:100A430007C200054E120DDD7FFA120E977FFA12D0
:040A53000E9780E199
:0B0F8A00E542131313541F2443F82208
:10086800C2877F14120E97D2872087FD3087FD201C
:1008780087FDE4F542120F8AC000E6FF25E0D000AC
:10088800F63087FD120F0B120F8AE6FFA287E433BA
:100898004FF62087FD0542E542C3942840D7E5433B
:1008A8002545FFE433FE7C00EFB5470BECB50607A2
:0D08B8007B007A007943227B007AFF79FFF4
:0108C5002210
:050F7200014E00C1006A
:0D0F6500D288D2A8D2AFD28AD2AAC29122DD
:060FC600A292B3929122F9
:030003000209757A
:10097500C0E0C0F0C083C08263A201C083C082C052
:10098500D075D000C000C001C002C003C004C005BE
:10099500C006C007D2007FFF120E977FFF120E9789
:1009A500D007D006D005D004D003D002D001D000A6
:1009B500D0D0D082D08363A201D082D083D0F0D0B2
:0209C500E0321E
:100DDD00D3E54E648094824003E4F54EE54E1460F5
:100DED000A14600A240270090205CF0208C6120A0D
:020DFD009B2237
:040FDC004389012222
:100E9700E4FEEEC39F5010758CFC758A17D28C3018
:090EA7008DFDC28D0E80EBC28CA2
:010EB000221F
:0A0F9500E4F58DF58BD28ED2AB226D
:050FD2000000000022F8
:100F0B00758CFF758AF1D28C308DFDC28CC28D220F
:050FD700D280D281224E
:080FA900D281120FD2C2812295
:0F0F2A00D280D281120FD2C280120FD2C2812286
:0F0F3900C281C280120FD2D281120FD2D2802277
:040921008F188D1985
:10092500C3E51A64809488500BE51A648094F840F6
:10093500037F0222751A01E51825E0F51833928028
:10094500D281120FD2C281051AC3E51A6480948838
:1009550040E5E51924FF9280120FA9D280120FD22B
:0F096500D281A280E433F51B120FD2C281AF1BE7
:010974002260
:020C0B008F1840
:100C0D00E4F51AD280F519E51A25E0F51AD281A27C
:100C1D0080E433421A120FD2C2810519C3E519645B
:100C2D0080948840E2E51824FF9280120FA9AF1A34
:010C3D002294
:020D21008F1829
:100D2300E4F519E518339280120FA9E51825E0F5CB
:100D3300180519C3E5196480948840E7D280D281ED
:050D4300120FD2C28175
:010D48002288
:100ECA006AB26701FC18982BD6770BD009B4007662
:080EDA00FFF93C8CC6F817700B
:060F7700042D0000000043
:1006D900A804AA06AB07A905E493FE740193FFEEEB
:1006E9003395E0FDFC227804AF24AE23AD22AC2182
:1006F90002046F900ECAE493FE740193FFE4FCFDBB
:1007090022AF0BAE0AAD09AC08780202046FAF172D
:10071900AE16AD15AC142212046F8F0B8E0A8D091B
:100729008C082278081204838F248E238D228C2131
:100739002278081204838F138E128D118C10228F48
:100749000F8E0E8D0D8C0C22AB0BAA0AA909A808D5
:10075900228F178E168D158C142212046FA804A9E6
:1007690005AA06AB0722AF0FAE0EAD0DAC0C020405
:010779006F10
:100E4100120E547FE0120D21120E547FB6120D21A5
:0E0E5100020F39120F2AE4FD7F7612092122CA
:100E7C008F088D09120F2AE4FD7F76120921AF0924
:0B0E8C00120D21AF08120D21020F39DA
:10049600120F2AE4FD7F761209217FFA120D21122E
:1004A6000F2A7D017F76120921E4FF120C0BE48FDF
:1004B60024F523F522F521AE23AD22AC2112072C1B
:1004C600E4FF1205B9F521FC12072C7F011205B9CC
:1004D600F521120F391206EF1207311206FC7801C8
:1004E600120483C004C005C006C00778031206F1D3
:1004F600D003D002D001D00012030A900ECC12060F
:10050600D9120318780B12046F8F288E278D268C2C
:10051600251206FCC004C005C006C0071206EFD0AF
:1005260003D002D001D00012030AC004C005C006E1
:10053600C0071206FFC004C005C006C0071206EFBA
:10054600D003D002D001D00012030AD003D002D0CB
:1005560001D000120318780C12046F900ECE12060A
:10056600D9120318780E12046F8F2C8E2B8D2A8CBD
:1005760029E528252CFFE527352BFEE526352AFD1E
:10058600E52535298F308E2F8D2EF52DE47F05FE3E
:10059600FDFCAB30AA2FA92EA82D120318EF24803C
:1005A600FFE43EFEE43DFDE43CFC780812046F12D5
:0205B60006E855
:1005B80022120C0BE5244FFFE523FEE522FDE52181
:0705C8008F248E238D2222F7
:10000600120F2AE4FD7F761209217FF7120D2112C5
:100016000F2A7D017F76120921E4FF120C0BE48F73
:1000260013F512F511F510AE12AD11AC1012073A18
:10003600E4FF12027FF510FC12073A7F0112027FDD
:10004600F510120F39AF13AE12AD11AC10780412C1
:10005600046F12073FAF30AE2FAD2EAC2D780112D4
:10006600046FE42FFFEE3406FEED34FFFDEC34FFA3
:100076008F0B8E0A8D09F508FC780212046FC004F6
:10008600C005C006C00712070AD003D002D001D0AF
:1000960000120318780B120763900EDA1206E112AB
:1000A6000318120748900ED81206E11207511203E0
:1000B600187801120483E50F2FFFE50E3EFEE50DCD
:1000C6003DFDE50C3C8F0F8E0E8D0DF50C900ED67A
:1000D6001206E17810120483C004C005C006C007EA
:1000E600780212076FD003D002D001D0001202FDB1
:1000F60012074812070AC004C005C006C007120747
:100106000AD003D002D001D000120318780D1207CE
:1001160063900ED41206E1120318780312046FC01E
:1001260004C005C006C007900ED21206E1120751A0
:10013600120318780112046FD003D002D001D00048
:100146001202FD7812120720E4250BFBE50A348023
:10015600FAE43509F9E43508F8900ED01206FF12D4
:100166000318780F120720EC4D4E4F7005FFFEFD69
:10017600FC22C3E49513FFE49512FE74109511FD5D
:10018600E49510FCC004C005C006C007780C120731
:100196006FAB07AA06A905A804D007D006D005D0DC
:1001A6000412030AE47B357A0CF9F81203181207D5
:1001B6005AE4FFFEFD7C80AB17AA16A915A814C346
:1001C60012044B1207515011C00012071778011282
:1001D6000483D0001203A3800F1207171203A3E4AF
:1001E6007B02FAF9F812031812075A120717780356
:1001F60012045CC004C005C006C0071207177803C6
:1002060012045CD003D002D001D000120318780D7E
:1002160012045CAB07AA06A804900EE01206DF12D1
:100226000318780C120720120717780212045CAB29
:1002360007AA06A905A804900EDE1206E112031805
:10024600780D12046F120748E50B250FFBE50A35FA
:100256000EFAE509350DF9E508350CF8900EDC12B5
:1002660006E11202FD780412046FAB17AA16A9154F
:08027600A8141202FD12075A40
:10027E0022120C0BE5134FFFE512FEE511FDE51002
:07028E008F138E128D112267
:0C0F7E00438920759850758DFFD28E229B
:060FCC00120ADE020D987E
:060D98008B0A8A0B890C96
:100D9E00E4FFAB0AAA0BA90C8F827583001202AE78
:0C0DAE00600AF5993099FDC2990F80E6AB
:010DBA002216
:080FB1008F993099FDC29922CD
:090F9F00E4FF309804C298AF99F8
:010FA8002226
:010FE00057B9
:070FB900900FE0E493FF221A
:100D49008F138D148B15C2AF120F2A120FB9E4FD40
:100D5900120921AF13120D21AF14120D21AF151273
:080D69000D21120F39D2AF2257
:100EE200120F2A120FB97D011209217F01120C0B78
:070EF2008F15120F39AF1537
:010EF90022D6
:100E5F008F138D14120F2A120FB9E4FD120921AF4F
:0D0E6F0013120D21AF14120D21120EE222FC
:0F0F4800EFC4540F75F00AA4FEEF540F2EFF22D2
:1009C700120F2AE4FD7F68120921E4FF120D21129C
:1009D7000F39120F2A7D017F68120921E4F508E417
:1009E700FF120A050508C3E5086480948740F07F75
:0D09F70001120A05120F397B007A00793CCD
:0F0A040022120C0B120F48743C2508F8A607228B
:060B1E008B478A4889495B
:100B2400120F2A7D017F68120921E4FF120D21E4CE
:100B3400F54AAB47AA48A949AE02AF01EF4E60158A
:100B4400AF4AEF3395E08F82F5831202AEFF120DA8
:080B540021054A80DD020F3982
:100ADE00E4FDEF75F00A84E5F02430FE744B2DF83A
:100AEE00A606EF75F00A84FE7010C3ED6480948341
:100AFE005008744C2DF8E4F68006AF060DBD03D2F7
:0F0B0E007B007A00794B120B977B007A00794BB2
:010B1D0022B5
:060B97008B0A8A0B890C99
:100B9D00E4FFEFC39D502CAB0AAA0BA90C8F8275F5
:100BAD0083001202AEFE8D827583001202AE8F821B
:100BBD007583001202DB8D82758300EE1202DB0F4E
:030BCD001D80CFB9
:010BD0002202
:010FE10057B8
:100BD10075090AE4F508E509C394FF50127BFFADDE
:100BE10009AF08120D497F0F120E97050980E7E43E
:100BF100F5090508E508C3940F40DB7F44120FB1E6
:0A0C01007F0D120FB17F0A020FB140
:100C3E00E4F508E4F509AD09AF08120E5F120FCC0A
:100C4E007F20120FB10509E509C394FF40E87F0D1F
:100C5E00120FB17F0A120FB10508E508C3940F40B9
:010C6E00D2B3
:010C6F002262
:100CF800E4F5087BFFAD08E4FF120D497F0F120EE3
:100D0800970508E508C3940A40E97F44120FB17FAC
:090D18000D120FB17F0A020FB1A8
:100EB100120F9FEF249D600D24FE6006047009024D
:090EC1000C3E020BD1120CF822C8
:10078600020A13E493A3F8E493A34003F68001F26C
:1007960008DFF48029E493A3F85407240CC8C33374
:1007A600C4540F4420C8834004F456800146F6DF43
:1007B600E4800B0102040810204080900F72E47E52
:1007C600019360BCA3FF543F30E509541FFEE49338
:1007D600A360010ECF54C025E060A840B8E493A3FF
:1007E600FAE493A3F8E493A3C8C582C8CAC583CA2A
:1007F600F0A3C8C582C8CAC583CADFE9DEE780BEE2
:010F7D000073
:10029500BB010689828A83E0225002E722BBFE0267
:0902A500E32289828A83E493229A
:1002AE00BB010CE58229F582E5833AF583E0225005
:1002BE0006E92582F8E622BBFE06E92582F8E2224F
:0D02CE00E58229F582E5833AF583E4932269
:1002DB00F8BB010DE58229F582E5833AF583E8F059
:1002EB00225006E92582C8F622BBFE05E92582C805
:0202FB00F222ED
:0D02FD00EF2BFFEE3AFEED39FDEC38FC2250
:0E030A00C3EF9BFFEE9AFEED99FDEC98FC22EE
:10031800E88FF0A4CC8BF0A42CFCE98EF0A42CFC84
:100328008AF0EDA42CFCEA8EF0A4CDA8F08BF0A402
:100338002DCC3825F0FDE98FF0A42CCD35F0FCEB61
:100348008EF0A4FEA9F0EB8FF0A4CFC5F02ECD3926
:0F035800FEE43CFCEAA42DCE35F0FDE43CFC2293
:1003670075F008758200EF2FFFEE33FECD33CDCC4D
:1003770033CCC58233C5829BED9AEC99E5829840D0
:100387000CF582EE9BFEED9AFDEC99FC0FD5F0D6AD
:10039700E4CEFBE4CDFAE4CCF9A88222B800C1B9D7
:1003A7000059BA002DEC8BF084CFCECDFCE5F0CB15
:1003B700F97818EF2FFFEE33FEED33FDEC33FCEB4E
:1003C70033FB10D703994004EB99FB0FD8E5E4F909
:1003D700FA227818EF2FFFEE33FEED33FDEC33FCF6
:1003E700C933C910D7059BE99A4007EC9BFCE99AEA
:1003F700F90FD8E0E4C9FAE4CCFB2275F010EF2F2F
:10040700FFEE33FEED33FDCC33CCC833C810D7072E
:100417009BEC9AE899400AED9BFDEC9AFCE899F869
:0E0427000FD5F0DAE4CDFBE4CCFAE4C8F922FC
:100A5700C2D5E830E70FB2D5E4C39BFBE49AFAE4CA
:100A670099F9E498F8EC30E717B2D5120A8D12031A
:100A7700A3E4C39BFBE49AFAE499F9E498F88003AA
:100A87001203A330D50DE4C39FFFE49EFEE49DFD52
:040A9700E49CFC22BD
:10043500EB9FF5F0EA9E42F0E99D42F0EC6480C83E
:0604450064809845F022DE
:10044B00EB9FF5F0EA9E42F0E99D42F0E89C45F007
:01045B00227E
:10045C00E8600FECC313FCED13FDEE13FEEF13FF7E
:03046C00D8F122A2
:10046F00E86010ECA2E713FCED13FDEE13FEEF13A3
:04047F00FFD8F02290
:10048300E8600FEFC333FFEE33FEED33FDEC33FCD7
:03049300D8F1227B
:00000001FF
