:0300000002093CB6
:0C093C00787FE4F6D8FD75812402098361
:0C09C8000114010111020112800113C092
:080B2300C2905170512880FEC0
:0C09D400011C01011902011A80011BC066
:100AC000AB15AA16A917AF18EF3395E08F82F583FF
:040AD000310FFF22C1
:100A70007F0F7E00518C7F3851E47F057E00518CC2
:0C0A80007F0651E47F0F51E4AF1C41E4FD
:0F0AE400C2808FA0C2817F647E0051A6D2812282
:0F0AF300D2808FA0C2817F647E0051A6D2812263
:030B3000B290225E
:060A51008B158A168917BF
:100A5700E4F518F51851C0600FB40A0451D48004A6
:080A670051C051F3051880EDA8
:010A6F002264
:100AD4002000067FC051E480047F8051E4B20022EC
:090B0F00E4F510EF60032430FF4F
:010B180022BA
:050B2B0002FF020304BB
:0C09E000012001011D02011E80011FC04A
:100A2800780B7C007D007BFF7A0B792B7E007F059D
:100A380011D0AF0B710F8F0B51F3AF0C710F8F0CDF
:080A4800800051F3AF0D51F3E2
:010A50002283
:1009F900900002310FFF3395E0FE11F6FD3395E0CB
:100A0900FCED2FFFEC3EFE900004310FFD3395E025
:0F0A1900FCEF6D7002EE6C60037FFF227F012205
:0C09EC000124010121020122800123C02E
:010B3300229F
:0D0B02002091093093067FF47E01518C2272
:010B3400229E
:0A0B1900D289D28CD28AE4FDFC22BE
:100A8C007119C3ED9FEC9E5010D28C308DFDC28C31
:090A9C00C28D0DBD00010C80E9C2
:010AA500222E
:100AA6007119C3ED9FEC9E5010D28C308CFDC28C18
:090AB600C28D0DBD00010C80E9A8
:010ABF002214
:10094800020B23E493A3F8E493A34003F68001F297
:1009580008DFF48029E493A3F85407240CC8C333B0
:10096800C4540F4420C8834004F456800146F6DF7F
:10097800E4800B01020408102040809009C8E47E3E
:10098800019360BCA3FF543F30E509541FFEE49374
:10099800A360010ECF54C025E060A840B8E493A33B
:1009A800FAE493A3F8E493A3C8C582C8CAC583CA66
:1009B800F0A3C8C582C8CAC583CADFE9DEE780BE1E
:0109F80000FE
:10080000E709F608DFFA8046E709F208DFFA803EDA
:1008100088828C83E709F0A3DFFA8032E309F608C7
:10082000DFFA8078E309F208DFFA807088828C832F
:10083000E309F0A3DFFA806489828A83E0A3F608E3
:10084000DFFA805889828A83E0A3F208DFFA804CBD
:1008500080D280FA80C680D4806980F28033801094
:1008600080A680EA809A80A880DA80E280CA8033FD
:1008700089828A83ECFAE493A3C8C582C8CCC58375
:10088000CCF0A3C8C582C8CCC583CCDFE9DEE78045
:100890000D89828A83E493A3F608DFF9ECFAA9F0C4
:1008A000EDFB2289828A83ECFAE0A3C8C582C8CC1A
:1008B000C583CCF0A3C8C582C8CCC583CCDFEADE33
:1008C000E880DB89828A83E493A3F208DFF980CC95
:1008D00088F0EF60010E4E60C388F0ED2402B4048E
:1008E0000050B9F582EB2402B4040050AF23234535
:0608F00082239008507302
:1008F600BB010689828A83E0225002E722BBFE0200
:09090600E32289828A83E4932232
:10090F00BB010CE58229F582E5833AF583E022509D
:10091F0006E92582F8E622BBFE06E92582F8E222E7
:0D092F00E58229F582E5833AF583E4932201
:00000001FF
