:03000000020800F3
:0C080000787FE4F6D8FD758110020847EF
:0A0989003132333435363738390087
:03096E00010F0175
:0E096000C29031247BFF7A097989118C80F6D0
:07097100010E01020C000061
:10092400AF0E31A6C28075A03811FED28131007598
:10093400A00611FED281310075A00F11FED2817F75
:05094400327E002104D9
:0809A600C2801208FCD281227C
:0809AE00D2801208FCD2812264
:0309B600B29022DA
:0A099300309106D2903100C290228C
:06088C008B088A09890AAD
:10089200E4F50BD280F50BAB08AA09A90A850B82F5
:1008A20075830011CFFFFD3395E0FCE50BC39DEC92
:1008B2006480F874809850047E0180027E00EE60AD
:0D08C2000A11FCD2813100050B80CC2149C8
:10094900E50D450C70067FC031A680047F8031A675
:07095900630DFF630CFF2298
:0808FC008FA0C2817F327E0053
:10090400E4FDFCC3ED9FEC9E5015E4FBFA0BBB0029
:0F091400010AEB64644A70F50DBD00010C80E42C
:0109230022B1
:09099D00C290D290C290D29022C7
:030978000110016A
:0109B900221B
:0D097C002091093093067FE87E03310422AC
:0109BA00221A
:10080C00020960E493A3F8E493A34003F68001F299
:10081C0008DFF48029E493A3F85407240CC8C333ED
:10082C00C4540F4420C8834004F456800146F6DFBC
:10083C00E4800B010204081020408090096EE47ED5
:10084C00019360BCA3FF543F30E509541FFEE493B1
:10085C00A360010ECF54C025E060A840B8E493A378
:10086C00FAE493A3F8E493A3C8C582C8CAC583CAA3
:10087C00F0A3C8C582C8CAC583CADFE9DEE780BE5B
:01097B00007B
:1008CF00BB010CE58229F582E5833AF583E02250DE
:1008DF0006E92582F8E622BBFE06E92582F8E22228
:0D08EF00E58229F582E5833AF583E4932242
:00000001FF
