:03000000020800F3
:0C080000787FE4F6D8FD758148020847B7
:080E6000483A2000543A20003A
:100A4000011ADF0118E9011701011902011B8001D8
:020A50001CC0C8
:10090A00120E41120E75120E34120D2CC291120ED5
:10091A007012088C8B0B8A0C890D12097A120970D5
:10092A00AB0BAA0CA90D900001120993120970AF22
:10093A0019120E187A0E796012096412097AFF12D6
:10094A000C067A0E7964120964900001120993FF69
:0A095A00120C067F0D120E6880B724
:100964007BFF120D09AB0BAA0CA90D22FF120BC4BD
:060974007F20120E262276
:100A52000120DF011EE9011D01011F0201218001A8
:020A620022C0B0
:0F0DFA00AB11AA12A91385148275830002099305
:100D2C007F32120D4A7F38120E187F05120D4A7F42
:0E0D3C0006120E187F0E120E18AF1D020E18B2
:0E0E1800C2938FA0C2947F02120D4AD2942280
:0E0E2600D2938FA0C2947F02120D4AD2942262
:060CE6008B118A12891334
:100CEC00E4F514120DFAFF6013B40A05120DEB8033
:0C0CFC0007120DFAFF120E26051480E707
:010D080022C8
:100BC400E4FDEF75F00A84E5F02430FE740E2DF890
:100BD400A606EF75F00A84FE7010C3ED648094835A
:100BE4005008740F2DF8E4F68006AF060DBD03D24D
:100BF4007B007A00790E120C867B007A00790E0253
:020C04000CE6FC
:060C86008B118A12891394
:100C8C00E4FFEFC39D5026AB11AA12A9138F821259
:100C9C000E03FE8D82120E038F827583001209C023
:0D0CAC008D82758300EE1209C00F1D80D5EA
:010CB9002218
:0F0DEB00200004AF228002AF21120E18B20022A6
:10088C00E4F50E7FFA120D4A050EE50EC3940840EE
:10089C00F2C2877F14120D4AD2872087FD3087FD64
:1008AC002087FDE4F50E3087FD7F01120D64E50E07
:1008BC00131313541FFF240FF8C000E625E0D000DB
:1008CC00F630870B740F2FF8E64401F62087FD05F0
:1008DC000EE50EC3942840CEE50F2511FFE433FE40
:1008EC007C00EFB51311ECB5060D850F14851115B1
:0D08FC007B007A007914227B007AFF79FFDF
:0109090022CB
:100A64000126DF0124E90123010125020127800178
:020A740028C098
:0D0E3400D288D2A8D2AFD28AD2AAC291220F
:090E5700209203D29122C29122E3
:030003000209E20D
:1009E200C0E0C0F0C083C08263A201C083C082C0E5
:1009F200D075D000C000C001C002C003C004C00551
:040A0200C006C00763
:100A0600209215C2917516007FC8120D4A0516E58B
:080A160016C3941940F2D291BD
:100A1E00D007D006D005D004D003D002D001D0002C
:100A2E00D0D0D082D08363A201D082D083D0F0D038
:020A3E00E032A4
:03000B00020AEEF8
:100AEE00C0E0C0F0C083C08263A201C083C082C0D8
:100AFE00D075D000C000C001C002C003C004C00544
:100B0E00C006C007AF23120E18D007D006D005D0EE
:100B1E0004D003D002D001D000D0D0D082D08363D5
:0B0B2E00A201D082D083D0F0D0E032D2
:040E7500438901228A
:100D4A00E4FEEEC39F5010758CFC758A17D28C3066
:090D5A008DFDC28D0E80EBC28CF0
:010D6300226D
:100D6400E4FEEEC39F5012758CFF758AFFD28C305F
:090D74008DFDC28CC28D0E80E9D8
:010D7D002253
:010E79002256
:100A7600012CDF012AE9012901012B02012D800148
:020A86002EC080
:050E7000D282D28322B2
:100DC5007F01120D64D2837F01120D64C2837F01FE
:030DD500020D64A8
:100D9700D282D2837F01120D64C2827F01120D6459
:070DA700C2837F01020D640D
:100DAE00C283C2827F01120D64D2837F01120D6451
:070DBE00D2827F01020D64E7
:040A9B008F3B8D3CC4
:100A9F00753D01AF3BEF3395E0FEEFA83D088005B4
:100AAF00C333CE33CED8F9339282120DC5053DC371
:100ABF00E53D6480948840DBE53C24FF9282120D73
:100ACF00C5D2827F01120D64D283A282E433F53E38
:0E0ADF007F01120D64C2837F01120D64AF3ED1
:010AED0022E6
:020B39008F3FEC
:100B3B00E4F541F540E54125E0F5417F01120D64F7
:100B4B00D2837F01120D64A282E4334241C283053A
:100B5B0040C3E5406480948840DB7F01120D64D272
:100B6B0083E53FB40104D2828002C2827F01120D61
:050B7B0064C283AF41DC
:010B80002252
:020C48008F42D9
:100C4A00E4F543AF43E542A807088002C333D8FC62
:100C5A00339282120DC50543C3E5436480948840EC
:100C6A00E2D2827F01120D64D283A282E433F54478
:0C0C7A007F01120D64C2837F01020D6433
:100CBA00754508120D97E4FDAF45120A9B8F46123F
:100CCA000DAEE546700AAF45120BC47F20120E2600
:0B0CDA000545C3E545648094F840D850
:010CE50022EC
:010E7A002255
:100DD800EF75F00A84C454F0FEEF75F00A84EE252E
:030DE800F0FF22F7
:0F0E0900EFC4540F75F00AA4FEEF540F2EFF2212
:100B8100E4F547120D97E4FD7F68120A9BAF471207
:100B91000C48120DAE120D977D017F68120A9BE47D
:100BA100FF120B39120E09742F2547F8A607120DF3
:100BB100AE0547C3E5476480948740C77B007A0050
:020BC100792F8A
:010BC300220F
:100D7E00120D977D017F68120A9B8F48E4FF120CBB
:090D8E0048120D97E4FF020C4825
:100A88000138DF0136E901350101370201398001FA
:020A98003AC062
:0C0E4100438920759850758DFDD28E22DB
:100C0600E4FDEF75F00A84E5F02430FE740E2DF84D
:100C1600A606EF75F00A84FE7010C3ED6480948317
:100C26005008740F2DF8E4F68006AF060DBD03D20A
:100C36007B007A00790E120C867B007A00790E0210
:020C46000D0996
:060D09008B118A12891310
:100D0F00E4FFAB11AA12A9138F8275830012099306
:0C0D1F00600AF5993099FDC2990F80E63A
:010D2B0022A5
:080E68008F993099FDC2992217
:0A0E4D00209804C29880F9AF9922A2
:10080C0002090AE493A3F8E493A34003F68001F2EF
:10081C0008DFF48029E493A3F85407240CC8C333ED
:10082C00C4540F4420C8834004F456800146F6DFBC
:10083C00E4800B0102040810204080900A40E47E02
:10084C00019360BCA3FF543F30E509541FFEE493B1
:10085C00A360010ECF54C025E060A840B8E493A378
:10086C00FAE493A3F8E493A3C8C582C8CAC583CAA3
:10087C00F0A3C8C582C8CAC583CADFE9DEE780BE5B
:010A9A00005B
:10097A00BB010689828A83E0225002E722BBFE027B
:09098A00E32289828A83E49322AE
:10099300BB010CE58229F582E5833AF583E0225019
:1009A30006E92582F8E622BBFE06E92582F8E22263
:0D09B300E58229F582E5833AF583E493227D
:1009C000F8BB010DE58229F582E5833AF583E8F06D
:1009D000225006E92582C8F622BBFE05E92582C819
:0209E000F22201
:00000001FF
