:030000000209F101
:0C09F100787FE4F6D8FD758123020A38F7
:0C0A7D000113010110020111800112C0E0
:080BA500C29051FC315E80FE9C
:0C0A8900011B01011802011980011AC0B4
:100B4C00AB14AA15A916AF17EF3395E08F82F58376
:040B5C003131FF2212
:100AFC007F0F7E0071187F3871707F057E00711832
:0C0B0C007F0671707F0F7170AF1B61706D
:0F0B7000C2808FA0C2817F647E007132D2812249
:0F0B7F00D2808FA0C2817F647E007132D281222A
:030BB700B29022D7
:060ADD008B148A15891636
:100AE300E4F517F517714C600FB40A0471608004C4
:080AF300714C717F051780EDC5
:010AFB0022D8
:100B60002000067FC0717080047F807170B2002207
:050BAD00EF2430FF22DF
:050BB20000000000003E
:0C0A9500011F01011C02011D80011EC098
:10095E00780B7C007D007BFF7A0B79B27E007F05E1
:10096E0011D0C2877F127E007118D2877F147E004D
:10097E007132E4F50820871A05097F017E00713275
:10098E00AF09EF3395E0FED3EF9480EE6480948050
:10099E0040E330870A050A7F017E00713280F3D36F
:1009AE00E50A648094A8E50875F008400911F6245C
:1009BE000BF87601800711F6240BF8E4F6E4F50A3D
:1009CE000508C3E508648094A840AA7B007A0079E4
:1009DE000B51AEBF010CAF0B71AD8F0B717FAF0D15
:0209EE00717F17
:0109F00022E4
:100AAE009000023131FF3395E0FE3118FD3395E0B1
:100ABE00FCED2FFFEC3EFE9000043131FD3395E04E
:0F0ACE00FCEF6D7002EE6C60037FFF227F012250
:0C0AA1000123010120020121800122C07C
:010BBA002218
:0D0B8E002091093093067FF47E017118223A
:010BBB002217
:0A0B9B00D289D28CD28AE4FDFC223C
:100B1800719BC3ED9FEC9E5010D28C308DFDC28C22
:090B2800C28D0DBD00010C80E935
:010B310022A1
:100B3200719BC3ED9FEC9E5010D28C308CFDC28C09
:090B4200C28D0DBD00010C80E91B
:010B4B002287
:1009FD00020BA5E493A3F8E493A34003F68001F260
:100A0D0008DFF48029E493A3F85407240CC8C333FA
:100A1D00C4540F4420C8834004F456800146F6DFC9
:100A2D00E4800B0102040810204080900A7DE47ED2
:100A3D00019360BCA3FF543F30E509541FFEE493BE
:100A4D00A360010ECF54C025E060A840B8E493A385
:100A5D00FAE493A3F8E493A3C8C582C8CAC583CAB0
:100A6D00F0A3C8C582C8CAC583CADFE9DEE780BE68
:010AAD000048
:10080000E709F608DFFA8046E709F208DFFA803EDA
:1008100088828C83E709F0A3DFFA8032E309F608C7
:10082000DFFA8078E309F208DFFA807088828C832F
:10083000E309F0A3DFFA806489828A83E0A3F608E3
:10084000DFFA805889828A83E0A3F208DFFA804CBD
:1008500080D280FA80C680D4806980F28033801094
:1008600080A680EA809A80A880DA80E280CA8033FD
:1008700089828A83ECFAE493A3C8C582C8CCC58375
:10088000CCF0A3C8C582C8CCC583CCDFE9DEE78045
:100890000D89828A83E493A3F608DFF9ECFAA9F0C4
:1008A000EDFB2289828A83ECFAE0A3C8C582C8CC1A
:1008B000C583CCF0A3C8C582C8CCC583CCDFEADE33
:1008C000E880DB89828A83E493A3F208DFF980CC95
:1008D00088F0EF60010E4E60C388F0ED2402B4048E
:1008E0000050B9F582EB2402B4040050AF23234535
:0608F00082239008507302
:1008F600C2D530F707B2D563F0FF05F030E70CB28A
:10090600D5F4048463F0FF05F080018430D502F449
:020916000422B9
:10091800BB010689828A83E0225002E722BBFE02DD
:09092800E32289828A83E4932210
:10093100BB010CE58229F582E5833AF583E022507B
:1009410006E92582F8E622BBFE06E92582F8E222C5
:0D095100E58229F582E5833AF583E49322DF
:00000001FF
