:0300000002086B88
:0C086B00787FE4F6D8FD75816A0203B4C2
:1007C2000814080704040700DFE90406010280C0D8
:0F082200AB34AA35A9368537827583000201A150
:100589007F0F1207557F381206FE1200061205AAC0
:100599001205AA9007CEE493FF1206FE7F02020716
:1005A900557F0E1206FE1200067F061206FE120085
:0205B900062218
:0604AC008B248A2589263D
:1004B200ED75F008A42440FF1206FEE4F527AB24F4
:1004C200AA25A926AF27EF3395E08F82F583120183
:1004D200A1FF1208830527C3E5276480948840DEC4
:0504E2007F800206FE10
:1006FE008FA0C293D294C2949007CEE4936F6006FB
:0F070E00A3E493B507057F0202075512000622E8
:0B0883008FA0D293D294C29402000612
:060673008B348A35893644
:10067900E4F537120822FF6013B40A0512078780D0
:0C06890007120822FF120883053780E7E3
:010695002242
:10033000E4FDEF75F00A84E5F02430FE74442DF8F6
:10034000A606EF75F00A84FE7010C3ED64809483F6
:10035000500874452DF8E4F68006AF060DBD03D2B3
:100360007B007A0079441205557B007A00794402BB
:02037000067312
:060555008B478A4889492A
:10055B00E4FFEFC39D5026AB47AA48A9498F8212EF
:10056B00082BFE8D8212082B8F827583001201CE11
:0D057B008D82758300EE1201CE0F1D80D51C
:010588002250
:100787002000059007D180039007D0E493FF12065D
:04079700FEB200228C
:10073A0020505050506850610008140807040407FC
:0B074A0000DFE90406010280C07657C2
:0908A3007BFF7A07793A02067323
:1005ED001201118B4A8A4B894C1201882402FF1289
:1005FD000330E4FF1208837F20120883AB4AAA4B15
:0E060D00A94C120188FF1203307F25020883DA
:10000E00900751E493FF1206FE12029D8B4D8A4E0D
:10001E00894FC2B790000212008ED2B77F3A1208F3
:10002E00839000011200747F3A120883AB4DAA4EE2
:10003E00A94F120188FF1203307F20120883900708
:10004E0052E493FF1206FE90000412007412008216
:10005E0090000512008E1200829000061201A1FF80
:06006E001203300208A39A
:10007400AB4DAA4EA94F1201A1FF120330227F2FCC
:10008400120883AB4DAA4EA94F221201A1FF1203FD
:02009400302218
:1003B4001208DA7FFF12075512087712085E120539
:1003C40089C2911208D57BFF7A077943E4FD1204B0
:1003D400ACE4FD7F0A1202E97D017F0C1202E97D83
:0F03E400FF7F091202E97D057F011202E980FE09
:1007D2000814080704040700DFE90406010280C0C8
:0B088E00E567131313541F2438F822F1
:10011100C2877F14120755D2872087FD3087FD20C3
:1001210087FDE4F56712088EC000E6FF25E0D000E8
:10013100F63087FD1207F212088EE6FFA287E4333C
:100141004FF62087FD0567E567C3942840D7E5385A
:10015100253AFFE433FE7C00EFB53C24ECB50620E4
:10016100AF381203307F251208837F20120883AF36
:100171003A120330E4FF1208837B007A00790022EF
:060181007B007AFF79FF0C
:010187002255
:1007E2000814080704040700DFE90406010280C0B8
:0D085E00D288D2A8D2AFD28AD2AAC29122EB
:0908AC00209203D29122C2912294
:030003000201F007
:1001F000C0E0C0F0C083C08263A201C083C082C0DF
:10020000D075D000C000C001C002C003C004C0054A
:04021000C006C0075D
:10021400209215C2917528007FC81207550528E55C
:0802240028C3941940F2D291A5
:10022C00D007D006D005D004D003D002D001D00026
:10023C00D0D0D082D08363A201D082D083D0F0D032
:02024C00E0329E
:03000B0002024EA0
:10024E00C0E0C0F0C083C08263A201C083C082C080
:10025E00D075D000C000C001C002C003C004C005EC
:10026E00C006C0079007EEE493FF1206FED007D03B
:10027E0006D005D004D003D002D001D000D0D0D00B
:0F028E0082D08363A201D082D083D0F0D0E0323F
:0408DA00438901222B
:10075500E4FEEEC39F5010758CFC758A17D28C3061
:090765008DFDC28D0E80EBC28CEB
:01076E002268
:050006000000000022D3
:1007F200758CFF758AF1D28C308DFDC28CC28D2230
:0108DE0022F7
:100802000814080704040700DFE90406010280C097
:0508D500D282D2832253
:0F083100D282D283120006C282120006C2832234
:0F084000C283C282120006D283120006D2822225
:0403F3008F3C8D3D71
:1003F700753E01E53C25E0F53C33120428053EC374
:10040700E53E6480948840EBE53D24FF120428D242
:1004170082D283A282E433F53F120006C283AF3F44
:0B042700229282D283120006C28322C0
:020470008F50AB
:10047200E4F552D282F551E55225E0F552D283A23B
:1004820082E4334252120006C2830551C3E551642D
:1004920080948840E2E550B40104D2828002C28294
:0904A200D283120006C283AF529E
:0104AB00222E
:02061B008F5FEF
:10061D00E4F560E55F339282D283120006C283E572
:10062D005F25E0F55F0560C3E5606480948840E375
:09063D00D282D283120006C283AE
:010646002291
:10064700756108120831E4FDAF611203F38F62127E
:100657000840E562700AAF611203307F20120883F9
:0B0667000561C3E561648094F840D891
:010672002265
:10079B003A2000760814080704040700DFE9040672
:0407AB00010280C007
:0A0899000508C3E508648094962268
:1006DC001206EF7FE012061B1206EF7FB612061B06
:1006EC0002084012083190079EE493FFE4FD1203C8
:0206FC00F322E7
:1000960012083190079EE493FFE4FD1203F37FF00C
:1000A60012061B1208317D017F761203F3E4F50870
:1000B600E508B415047F018002E4FF120470740998
:1000C6002508F8A60712089940E6120840E4F50844
:1000D600AF081208BE7BFF7A07799B120696740951
:1000E6002508F8E6FF1203727F0D1208BE7F0A127A
:1000F60008BE12089940D9AB00AA00A900120188CF
:0A010600FF1203307B007A00790934
:0101100022CC
:100812000814080704040700DFE90406010280C087
:0C087700438920759850758DFFD28E22A9
:10037200E4FDEF75F00A84E5F02430FE74532DF8A5
:10038200A606EF75F00A84FE7010C3ED64809483B4
:10039200500874542DF8E4F68006AF060DBD03D262
:1003A2007B007A0079531205557B007A007953025B
:0203B2000696AD
:060696008B568A578958BB
:10069C00E4FFAB56AA57A9588F827583001201A1AB
:0C06AC00600AF5993099FDC2990F80E6B4
:0106B800221F
:0808BE008F993099FDC29922C7
:0808C6003098FDC298AF9922A1
:0108DF0057C1
:0708CE009008DFE493FF2214
:1006B9008F598D5A8B5B1208311208CEE4FD120353
:1006C900F3AF5912061BAF5A12061BAF5B12061B7A
:0306D900020840D4
:0808B5008B2F8A3089318D324E
:0108BD002218
:1004E700E4F55EF55CE4F55DAB5EAD5DAF5C120611
:1004F700B9635E01AF5C1203727F201208BE7F0AE8
:10050700120755055DE55DC394FF40DC055CE55CBE
:07051700C3940F40D07F00E8
:01051E0022BA
:1005BB00E4F563E4F564AD64AF6312071D120372D7
:1005CB007F201208BE0564E564C394FF40E87F0DED
:1005DB001208BE7F0A1208BE0563E563D3940F4071
:0105EB00D23D
:0105EC0022EC
:10076F001208311208CE7D011203F37F01120470BB
:07077F008F68120840AF680B
:010786002250
:04071D008F658D66F1
:100721001208311208CEE4FD1203F3AF6512061B65
:08073100AF6612061B12076FF0
:01073900229D
:0402E9008F248D25AC
:1002ED00C2B6E4F526AF26E524A807088002C3337D
:1002FD00D8FC12031C40EEE4F526AF26E525A80731
:0E030D00088002C333D8FC12031C40EED2B6A7
:10031B00223392B7D2B5120006C2B50526C3E52625
:05032B006480948822AB
:1007AF00EF75F00A84C454F0FEEF75F00A84EE255D
:0307BF00F0FF2226
:0F084F00EFC4540F75F00AA4FEEF540F2EFF22D2
:10051F00120831E4FD7F681203F37F1112061B12DC
:10052F0008401208317D017F681203F3E4FF1204C3
:10053F00707569007F01120470EF42691208407AEA
:05054F0000A9697B001A
:010554002284
:10029D00120831E4FD7F681203F3E4FF12061B120E
:1002AD0008401208317D017F681203F3E4F56AE519
:1002BD006AB406047F018002E4FF12047012084F35
:1002CD007429256AF8A607056AC3E56A64809487D0
:0B02DD0040DD1208407B007A00792908
:0102E80022F3
:060432008B408A41894263
:100438001208317D017F681203F3E4FF12061BE402
:10044800F543AB40AA41A942AE02AF01EF4E601599
:10045800AF43EF3395E08F82F5831201A1FF1206B7
:080468001B054380DD02084082
:10018800BB010689828A83E0225002E722BBFE0275
:09019800E32289828A83E49322A8
:1001A100BB010CE58229F582E5833AF583E0225013
:1001B10006E92582F8E622BBFE06E92582F8E2225D
:0D01C100E58229F582E5833AF583E4932277
:1001CE00F8BB010DE58229F582E5833AF583E8F067
:1001DE00225006E92582C8F622BBFE05E92582C813
:0201EE00F222FB
:00000001FF
