:030000000208A053
:0C08A000787FE4F6D8FD7581200208B7CF
:0E08760048656C6C6F2C20576F726C6421000B
:0A08B7007BFF7A087976112D80F698
:0E088400C28175A0387F0A7E001156D28122F3
:0B08AC00A2009281C2828FA0D28222A3
:0308C100B2A722B9
:0E08920030A60AD2A77FD07E071156C2A72239
:06082D008B088A09890A0C
:10083300D281C282E4FFFEAB08AA09A90A8F828E85
:10084300831100F5A00FBF00010EEF64034E70E7A4
:02085300D2824F
:010855002280
:10085600E4FDFCC3ED9FEC9E5015E4FBFA0BBB00D8
:0F086600010AEB64644A70F50DBD00010C80E4DB
:010875002260
:10080000BB010CE58229F582E5833AF583E02250AD
:1008100006E92582F8E622BBFE06E92582F8E222F7
:0D082000E58229F582E5833AF583E4932211
:00000001FF
