:03000000020800F3
:0C080000787FE4F6D8FD75813B020847C4
:100E4F00207C20000814080704040700DFE90406CB
:040E5F00010280C04C
:030F9900013757C6
:10088C00120FA57FFF120E35120F53120F46120CCA
:10089C00E9C291120FA07BFF7A0E7953E4FD120C82
:1008AC000E7F1E120E357F1E120E35E4F50812084F
:1008BC00F70508E508C3947F40F4E4F508E4F5096E
:1008CC001208F7AD09AF08120D4D120B8E0509E594
:1008DC0009C394FF40EA7F0A120F917F0A120F910D
:0B08EC000508E508C3940F40D480FE0F
:0F08F700AF08120B8E7BFF7A0E794F120DF32292
:100E8A000814080704040700DFE90406010280C009
:0F0F0A00AB20AA21A922852382758300020A2A1F
:100CE9007F0F120E357F38120E16120EBA120D0A28
:100CF900120D0A900E96E493FF120E167F02020E51
:100D0900357F0E120E16120EBA7F06120E16120E2D
:020D1900BA22FC
:060C0E008B0D8A0E890F18
:100C1400ED75F008A42440FF120E16E4F510AB0D98
:100C2400AA0EA90FAF10EF3395E08F82F583120A55
:100C34002AFF120F5F0510C3E5106480948840DE1C
:050C44007F80020E1686
:100E16008FA0C293D294C294900E96E4936F60060C
:0F0E2600A3E493B507057F02020E35120EBA2220
:0B0F5F008FA0D293D294C294020EBA6D
:060DD0008B208A2189221C
:100DD600E4F523120F0AFF6013B40A05120E6380AE
:0C0DE60007120F0AFF120F5F052380E7C1
:010DF20022DE
:100B0A00E4FDEF75F00A84E5F02430FE742C2DF82C
:100B1A00A606EF75F00A84FE7010C3ED6480948314
:100B2A005008742D2DF8E4F68006AF060DBD03D2E9
:100B3A007B007A00792C120CB57B007A00792C02A2
:020B4A000DD0CC
:060CB5008B108A11891268
:100CBB00E4FFEFC39D5026AB10AA11A9128F82122D
:100CCB000F13FE8D82120F138F82758300120A573A
:0D0CDB008D82758300EE120A570F1D80D523
:010CE80022E9
:100E6300200005900E998003900E98E493FF120ED4
:040E730016B2002291
:100E9A000814080704040700DFE90406010280C0F9
:0B0F6A00E538131313541F2424F82251
:10090600C2877F14120E35D2872087FD3087FD20DF
:1009160087FDE4F538120F6AC000E6FF25E0D00037
:10092600F63087FD120ECA120F6AE6FFA287E4337D
:100936004FF62087FD0538E538C3942840D7E524CF
:100946002526FFE433FE7C00EFB52824ECB506200F
:10095600AF24120B0A7F25120F5F7F20120F5FAFA5
:1009660026120B0AE4FF120F5F7B007A0079002241
:060976007B007AFF79FF0F
:01097C002258
:100EAA000814080704040700DFE90406010280C0E9
:0D0F4600D288D2A8D2AFD28AD2AAC29122FC
:090F7F00209203D29122C29122BA
:0300030002097D72
:10097D00C0E0C0F0C083C08263A201C083C082C04A
:10098D00D075D000C000C001C002C003C004C005B6
:04099D00C006C007C9
:1009A100209215C2917514007FC8120E350514E509
:0809B10014C3941940F2D29125
:1009B900D007D006D005D004D003D002D001D00092
:1009C900D0D0D082D08363A201D082D083D0F0D09E
:0209D900E0320A
:03000B000209DB0C
:1009DB00C0E0C0F0C083C08263A201C083C082C0EC
:1009EB00D075D000C000C001C002C003C004C00558
:1009FB00C006C007900EB6E493FF120E16D007D0B8
:100A0B0006D005D004D003D002D001D000D0D0D076
:0F0A1B0082D08363A201D082D083D0F0D0E032AA
:040FA5004389012259
:100E3500E4FEEEC39F5010758CFC758A17D28C307A
:090E45008DFDC28D0E80EBC28C04
:010E4E002281
:100EBA00758CFF758AEED28C308DFDC28CC28D2264
:100ECA00758CFF758AF1D28C308DFDC28CC28D2251
:010FA9002225
:100EDA000814080704040700DFE90406010280C0B9
:050FA000D282D2832281
:0F0F1900D282D283120EBAC282120EBAC28322C1
:0F0F2800C283C282120EBAD283120EBAD28222B2
:040AC5008F108D11F0
:100AC900751201E51025E0F51033120AFD0512C370
:100AD900E5126480948840EBE51124FF120AFDD2E7
:100AE90082120EBAD283A282E433F513120EBAC26D
:030AF90083AF13B5
:0E0AFC00229282120EBAD283120EBAC2832246
:020B4C008F1008
:100B4E00E4F512D282F511E51225E0F512120EBA75
:100B5E00D283120EBAA282E4334212C2830511C3AB
:100B6E00E5116480948840DFE510B40104D28280E0
:0F0B7E0002C282120EBAD283120EBAC283AF1213
:010B8D002245
:020C49008F100A
:100C4B00E4F511E51025E0F510339282120EBAD2BD
:100C5B0083120EBAC2830511C3E5116480948840D8
:100C6B00E2D282120EBAD283A282E433F512120EB2
:030C7B00BAC28377
:010C7E002253
:100D7F00753508120F19E4FDAF35120AC58F3612FB
:100D8F000F28E536700AAF35120B0A7F20120F5F5E
:0B0D9F000535C3E535648094F840D8AA
:010DAA002226
:100E7700EF75F00A84C454F0FEEF75F00A84EE258E
:030E8700F0FF2257
:0F0F3700EFC4540F75F00AA4FEEF540F2EFF22E3
:100C7F00120F19E4FD7F68120AC57F11120C491279
:100C8F000F28120F197D017F68120AC5E4FF120B9E
:100C9F004C7539007F01120B4CEF4239120F287A35
:050CAF0000A9397B00E3
:010CB400221D
:100A7900120F19E4FD7F68120AC5E4FF120C49122E
:100A89000F28120F197D017F68120AC5E4F53AE5AE
:100A99003AB406047F018002E4FF120B4C120F37AF
:100AA9007415253AF8A607053AC3E53A6480948790
:0B0AB90040DD120F287B007A00791549
:010AC400220F
:060BD0008B288A29892A06
:100BD600120F197D017F68120AC5E4FF120C49E461
:100BE600F52BAB28AA29A92AAE02AF01EF4E601554
:100BF600AF2BEF3395E08F82F583120A2AFF120C92
:080C060049052B80DD020F28D7
:100EEA000814080704040700DFE90406010280C0A9
:100D1B00120F19E4FD7F76120AC57FD0120C49120F
:100D2B000F28120F197D017F76120AC57F01120B56
:100D3B004C8F2F120F28AF2F120B0A7B007A0079E2
:010D4B002F78
:010D4C002284
:030F9C00013B57BF
:100DAB008F328D338B34120F19E4FDAF3B120AC512
:100DBB00E532540FFF120C49AF33120C49AF34120A
:050DCB000C49020F2895
:080F88008B1B8A1C891D8D1EC4
:010F9000223E
:040D4D008F0D8D0E6B
:100D5100120F19E4FDAF3B120AC5E50D540FFF1246
:100D61000C49AF0E120C49120F197D01AF3B120A4B
:0D0D7100C57F01120B4C8F0F120F28AF0F22
:010D7E002252
:100EFA000814080704040700DFE90406010280C099
:0C0F5300438920759850758DFFD28E22C6
:100B8E00E4FDEF75F00A84E5F02430FE740D2DF8C7
:100B9E00A606EF75F00A84FE7010C3ED6480948390
:100BAE005008740E2DF8E4F68006AF060DBD03D284
:100BBE007B007A00790D120CB57B007A00790D025C
:020BCE000DF325
:060DF3008B108A11891229
:100DF900E4FFAB10AA11A9128F82758300120A2A87
:0C0E0900600AF5993099FDC2990F80E64F
:010E150022BA
:080F91008F993099FDC29922ED
:0A0F7500209804C29880F9AF992279
:10080C0002088CE493A3F8E493A34003F68001F26E
:10081C0008DFF48029E493A3F85407240CC8C333ED
:10082C00C4540F4420C8834004F456800146F6DFBC
:10083C00E4800B0102040810204080900F99E47EA4
:10084C00019360BCA3FF543F30E509541FFEE493B1
:10085C00A360010ECF54C025E060A840B8E493A378
:10086C00FAE493A3F8E493A3C8C582C8CAC583CAA3
:10087C00F0A3C8C582C8CAC583CADFE9DEE780BE5B
:010F9F000051
:100A2A00BB010CE58229F582E5833AF583E0225081
:100A3A0006E92582F8E622BBFE06E92582F8E222CB
:0D0A4A00E58229F582E5833AF583E49322E5
:100A5700F8BB010DE58229F582E5833AF583E8F0D5
:100A6700225006E92582C8F622BBFE05E92582C881
:020A7700F22269
:00000001FF
