:03000000020927CB
:0C092700787FE4F6D8FD75815602044389
:10087E000814080704040700DFE90406010280C01B
:0F08DE00AB33AA34A93585368275830002023800
:1005A2007F0F1207D07F3812073F1200061205C3D1
:1005B2001205C390088AE493FF12073F7F020207E5
:1005C200D07F0E12073F1200067F0612073F12006D
:0205D2000622FF
:0604FB008B0A8A0B890C3C
:10050100ED75F008A42440FF12073FE4F50DAB0A96
:10051100AA0BA90CAF0DEF3395E08F82F583120280
:1005210038FF12093F050DC3E50D6480948840DE54
:050531007F8002073F7E
:10073F008FA0C293D294C29490088AE4936F6006FC
:0F074F00A3E493B507057F020207D0120006222C
:0B093F008FA0D293D294C29402000655
:0606B5008B338A34893505
:1006BB00E4F5361208DEFF6013B40A051208308029
:0C06CB00071208DEFF12093F053680E729
:0106D7002200
:10038000E4FDEF75F00A84E5F02430FE743F2DF8AB
:10039000A606EF75F00A84FE7010C3ED64809483A6
:1003A000500874402DF8E4F68006AF060DBD03D268
:1003B0007B007A00793F12056E7B007A00793F025C
:0203C00006B580
:06056E008B248A2589267A
:10057400E4FFEFC39D5026AB24AA25A9268F82123F
:1005840008E7FE8D821208E78F82758300120265E8
:0D0594008D82758300EE1202650F1D80D56B
:0105A1002237
:1008300020000590088D800390088CE493FF120738
:040840003FB20022A1
:10079A00205050505068506100081408070404079C
:0B07AA0000DFE90406010280C0765762
:1007B500900001AB45AA46A947020238AB45AA46B7
:0B07C500A94702021F90000202023848
:090955007BFF7A07799A0206B5CE
:100606001201388B428A43894412021F2402FF12C8
:100616000380E4FF12093F7F2012093FAB42AA4341
:0E062600A94412021FFF1203807F2502093F24
:10000E009007B1E493FF12073F1203348B458A46E3
:10001E0089471207CA12012E1207B512012E1207B6
:10002E00C1FF1203807F2012093F1206069007B20D
:10003E00E493FF12073F9000041207B812010190DB
:10004E000005120238120101900006120238FF124A
:10005E0003801207C1540FFD7F0112068C1207C1D7
:10006E0012012112021F7F021200DD12021F120165
:10007E00111207B5540FFD7F0312068C1207B554EB
:10008E000FFF1203C21207B57F041200DD900001AC
:10009E00120238120111AB45AA46A9471207CA7FB0
:1000AE00051200EE1201211207CA75F00A847F06AE
:1000BE001200EE75F00A84540FFF1203C27F201255
:0F00CE0009707F0D1209707F0A1209700209551F
:1000DD0075F00A84540FFD12068CAB45AA46A9474C
:1000ED0022540FFD12068CAB45AA46A9479000027B
:1000FD0012023822FF1203807F2F12093FAB45AA4F
:10010D0046A9472275F00A84540FFF1203C27F20BF
:10011D0012097022540FFF1203C2AB45AA46A9471C
:0B012D0022FF1203807F3A12093F22DC
:10044300E4F50912098C7FFF1207D0120933120950
:100453001A1205A2C2911209877BFF7A0779A3E4D6
:10046300FD1204FB12080212081A7F9212071E12D1
:0E04730001AF7FFF1207D07FFF1207D080F18C
:10088E000814080704040700DFE90406010280C00B
:0B094A00E554131313541F2437F82248
:10013800C2877F141207D0D2872087FD3087FD2021
:1001480087FDE4F55412094AC000E6FF25E0D00017
:10015800F63087FD1208AE12094AE6FFA287E4339B
:100168004FF62087FD0554E554C3942840D7E5375A
:100178002539FFE433FE7C00EFB53B24ECB50620BF
:10018800AF371203807F2512093F7F2012093FAF46
:1001980039120380E4FF12093F7B007A00790022BC
:0601A8007B007AFF79FFE5
:0101AE00222E
:10089E000814080704040700DFE90406010280C0FB
:0D091A00D288D2A8D2AFD28AD2AAC291222E
:09095E00209203D29122C29122E1
:030003000202876F
:10028700C0E0C0F0C083C08263A201C083C082C047
:10029700D075D000C000C001C002C003C004C005B3
:0402A700C006C007C6
:1002AB00209215C2917527007FC81207D00527E54C
:0802BB0027C3941940F2D2910F
:1002C300D007D006D005D004D003D002D001D0008F
:1002D300D0D0D082D08363A201D082D083D0F0D09B
:0202E300E03207
:03000B000202E509
:1002E500C0E0C0F0C083C08263A201C083C082C0E9
:1002F500D075D000C000C001C002C003C004C00555
:10030500C006C0079008AAE493FF12073FD007D0A4
:1003150006D005D004D003D002D001D000D0D0D073
:0F03250082D08363A201D082D083D0F0D0E032A7
:04098C004389012278
:1007D000E4FEEEC39F5010758CFC758A17D28C30E6
:0907E0008DFDC28D0E80EBC28C70
:0107E90022ED
:050006000000000022D3
:1008AE00758CFF758AF1D28C308DFDC28CC28D2273
:010990002244
:1008BE000814080704040700DFE90406010280C0DB
:05098700D280D28122A4
:0F08ED00D280D281120006C280120006C2812280
:0F08FC00C281C280120006D281120006D2802271
:040404008F218D2295
:10040800752301E52125E0F521331204390523C3BD
:10041800E5236480948840EBE52224FF120439D256
:1004280080D281A280E433F524120006C281AF2471
:0B043800229280D281120006C28122B5
:0204BF008F218B
:1004C100E4F523D280F522E52325E0F523D281A2AC
:1004D10080E4334223120006C2810522C3E522646F
:1004E10080948840E2E521B40104D2808002C28078
:0904F100D281120006C281AF2382
:0104FA0022DF
:020634008F2114
:10063600E4F522E521339280D281120006C281E5DB
:100646002125E0F5210522C3E5226480948840E354
:09065600D280D281120006C2819B
:01065F002278
:10066000754E081208EDE4FDAF4E1204048F4F12D0
:1006700008FCE54F700AAF4E1203807F2012093F3D
:0B068000054EC3E54E648094F840D89E
:01068B00224C
:100844003A2000760814080704040700DFE90406C8
:04085400010280C05D
:10085800900847E493FFE4FD22050AC3E50A648093
:0308680094962241
:10075E001208ED1208581204047FE0120634120833
:0F076E00ED1208581204047FB61206340208FC7C
:10071E008F0A1208ED1208581204047FF4120634E0
:10072E001208ED120858120404AF0A120634020819
:01073E00FCBE
:1001AF001208ED1208581204047FF71206341208D1
:1001BF00ED7D017F76120404E4F50AE4FF120209D3
:1001CF0012086140F67F011202091208FCE4F50AD9
:1001DF00AF0A1203C27BFF7A0879441206D8740B58
:1001EF00250AF8E6FF1203C212021412086140E05A
:0901FF001202147B007A00790B56
:10020800221204BF740B250AF8A607227F0D1209D3
:07021800707F0A1209702239
:1008CE000814080704040700DFE90406010280C0CB
:0C093300438920759850758DFFD28E22EC
:1003C200E4FDEF75F00A84E5F02430FE74212DF887
:1003D200A606EF75F00A84FE7010C3ED6480948364
:1003E200500874222DF8E4F68006AF060DBD03D244
:1003F2007B007A00792112056E7B007A0079210256
:0204020006D81A
:0606D8008B248A2589260F
:1006DE00E4FFAB24AA25A9268F8275830012023867
:0C06EE00600AF5993099FDC2990F80E672
:0106FA0022DD
:080970008F993099FDC2992214
:080978003098FDC298AF9922EE
:01099100570E
:07098000900991E493FF22AE
:1006FB008F488D498B4A1208ED120980E4FD1204D4
:10070B0004AF48120634AF49120634AF4A1206340E
:03071B000208FCD5
:080967008B2E8A2F89308D319F
:01096F002265
:10053600E4F54DF54BE4F54CAB4DAD4CAF4B120627
:10054600FB634D01AF4B1203C27F201209707F0A75
:100556001207D0054CE54CC394FF40DC054BE54B38
:07056600C3940F40D07F0099
:01056D00226B
:1005D400E4F550E4F551AD51AF5012077D1203C25A
:1005E4007F201209700551E551C394FF40E87F0D47
:1005F4001209707F0A1209700550E550D3940F4018
:01060400D223
:0106050022D2
:1007EA001208ED1209807D011204047F011204BF70
:0707FA008F551208FCAF55FA
:0108010022D4
:04077D008F528D53B7
:100781001208ED120980E4FD120404AF521206347E
:08079100AF531206341207EA0F
:01079900223D
:1008020012081A7D017F0A12068C7D017F0C1206E6
:080812008C7D077F0B02068CB0
:10081A00750A01E4FDAF0A12068C050AC3E50A64EB
:05082A0080948940EEFE
:01082F0022A6
:10068C00C2B6E4FEEF3392B7D2B5EF25E0FFC2B5A8
:10069C000EBE08F0E4FEED3392B7D2B5ED25E0FDC9
:0806AC00C2B50EBE08F0D2B683
:0106B4002223
:10086B00EF75F00A84C454F0FEEF75F00A84EE25A0
:03087B00F0FF2269
:0F090B00EFC4540F75F00AA4FEEF540F2EFF2215
:100334001208EDE4FD7F68120404E4FF120634128F
:1003440008FC1208ED7D017F68120404E4F556E40C
:10035400FF1203720556C3E5566480948740F07F0C
:0D036400011203721208FC7B007A00792858
:0F037100221204BF12090B74282556F8A6072282
:060481008B3B8A3C893D23
:100487001208ED7D017F68120404E4FF120634E4CC
:10049700F53EAB3BAA3CA93DAE02AF01EF4E60155E
:1004A700AF3EEF3395E08F82F583120238FF1206D5
:0804B70034053E80DD0208FC63
:10021F00BB010689828A83E0225002E722BBFE02DD
:09022F00E32289828A83E4932210
:10023800BB010CE58229F582E5833AF583E022507B
:1002480006E92582F8E622BBFE06E92582F8E222C5
:0D025800E58229F582E5833AF583E49322DF
:10026500F8BB010DE58229F582E5833AF583E8F0CF
:10027500225006E92582C8F622BBFE05E92582C87B
:02028500F22263
:00000001FF
