:03000000020800F3
:0C080000787FE4F6D8FD758117020847E8
:0E09D80048656C6C6F2C20576F726C642100A8
:0C093500010B01010802010980010AC049
:0E09CA00C29011D57BFF7A0979D8118C80FE7E
:0C094100010F01010C02010D80010EC02D
:1008D500C2807F0F7E00315A75A038C2817F057EA8
:1008E50000315AD28175A006C2817F6E7E00317BB0
:1008F500D28175A00FC2817F6E7E00317BD281AF20
:030905000F21AC13
:0F09AC00C2808FA0C2817F647E00317BD2812206
:0F09BB00D2808FA0C2817F647E00317BD28122E7
:0309FC00B2902294
:06088C008B148A15891689
:10089200E4F517D280F517AB14AA15A916851782AD
:1008A2007583003108FFFD3395E0FCE517C39DEC2D
:1008B2006480F874809850047E0180027E00EE60AD
:1008C200108FA0C2817F647E00317BD281051780A8
:0308D200C6219CA0
:10099C002000067FC031AC80047F8031ACB20022D5
:0109FF0022D5
:0909F300C290D290C290D2902271
:0C094D000113010110020111800112C011
:010A000022D3
:0D09E6002091093093067FF47E01315A22E2
:010A010022D2
:10095A00D289D28CD28AE4FDFCC3ED9FEC9E501062
:10096A00D28C308DFDC28CC28D0DBD00010C80E988
:01097A00225A
:10097B00D289D28CD28AE4FDFCC3ED9FEC9E501041
:10098B00D28C308CFDC28CC28D0DBD00010C80E968
:01099B002239
:10080C000209CAE493A3F8E493A34003F68001F22F
:10081C0008DFF48029E493A3F85407240CC8C333ED
:10082C00C4540F4420C8834004F456800146F6DFBC
:10083C00E4800B0102040810204080900935E47E0E
:10084C00019360BCA3FF543F30E509541FFEE493B1
:10085C00A360010ECF54C025E060A840B8E493A378
:10086C00FAE493A3F8E493A3C8C582C8CAC583CAA3
:10087C00F0A3C8C582C8CAC583CADFE9DEE780BE5B
:01095900009D
:10090800BB010CE58229F582E5833AF583E02250A4
:1009180006E92582F8E622BBFE06E92582F8E222EE
:0D092800E58229F582E5833AF583E4932208
:00000001FF
