:030000000208E70C
:0C08E700787FE4F6D8FD7581200208BF80
:0E08D90048656C6C6F2C20576F726C642100A8
:1008BF00C290119EC2007F8011F37BFF7A0879D915
:0A08CF001100C2007FC011F380EA9F
:10089E00C28075A0381178D281117A75A0061178B0
:1008AE00D281117A75A00F1178D2817F327E00012C
:0108BE007EBB
:0A08F300A2009280120876D2812242
:03091000B2902280
:0A08FD00309106D290117AC29022C9
:060800008B088A09890A39
:10080600E4F50BF50CD280F50BF50CAB08AA09A99B
:100816000A850C82850B831149FFFD3395E0FCC3E5
:10082600E50C9DE50B9C50047E0180027E00EE6087
:1008360011120876D281117A050CE50C70CD050BE4
:0208460080C967
:01084800228D
:080876008FA0C2817F327E00D9
:10087E00E4FDFCC3ED9FEC9E5015E4FBFA0BBB00B0
:0F088E00010AEB64644A70F50DBD00010C80E4B3
:01089D002238
:09090700C290D290C290D290225D
:10084900BB010CE58229F582E5833AF583E0225064
:1008590006E92582F8E622BBFE06E92582F8E222AE
:0D086900E58229F582E5833AF583E49322C8
:00000001FF
