:030000000207C430
:0C07C400787FE4F6D8FD75814D02080B2B
:060FB6000425000000000C
:10073700AF1CAE1BAD1AAC197804120246EF244E5B
:10074700FFEE3495FEED34FFFDEC34FF22AF0CAE27
:100757000BAD0AAC097802020246AF18AE17AD1608
:10076700AC15221202468F0C8E0B8D0A8C0922784B
:100777000812025A8F1C8E1B8D1A8C1922780812A8
:10078700025A8F148E138D128C1122FCE4F9F80291
:100797000105AB0CAA0BA90AA8090201058F188E3F
:1007A700178D168C15228F108E0F8D0E22FEE43DAD
:0D07B700FDE43CFC020246E4F9F8020105F5
:100E1400120F3CE4FD7F76120C507FE0120EB012EC
:0F0E24000F3C7F76120C507FB6120EB0020F4BB0
:100E5000AC05AB07120F3CE4FD7F76120C50AF04DB
:0B0E6000120EB0AF03120EB0020F4BD9
:10053300120F3CE4FD7F76120C507FFA120EB012BC
:100543000F3C0D7F76120C50E4FF120DD1E48F1C8B
:10055300F51BF51AF519AE1BAD1AAC19120776E4A3
:10056300FF120620F519FC1207767F01120620F50B
:1005730019120F4BAF1CAE1BAD1AAC197804120243
:100583004612077B7803120246EF249CFFEE342ABF
:1005930012074B7B017A67120792780B1202468F80
:1005A300208E1F8D1E8C1D120737FCC004C005C092
:1005B30006C007120737FCD003D002D001D00012C7
:1005C3000105780C1202467B187AFC79FF78FF123A
:1005D3000105780E1202468F248E238D228C21E58D
:1005E300202524FFE51F3523FEE51E3522FDE51DED
:1005F30035218F288E278D26F525E47F05FEFDFC0A
:10060300AB28AA27A926A825120105EF2480FFE419
:0C0613003E78081207B4EE3395E0FDFCC1
:10061F0022120DD1E51C4FFFE51BFEE51AFDE51972
:07062F008F1C8E1B8D1A22A7
:1002C200120F3CE4FD7F76120C507FF7120EB01233
:1002D2000F3C0D7F76120C50E4FF120DD1E48F1407
:1002E200F513F512F511AE13AD12AC11120784E439
:1002F200FF12051DF511FC1207847F0112051DF581
:1003020011120F4BAF14AE13AD12AC1178041202DE
:1003120046120789AF28AE27AD26AC257801120216
:1003220046E42FFFEE340612074B8F0C8E0B8D0A1C
:10033200F509FC7802120246C004C005C006C007D7
:10034200120754D003D002D001D000120105780B5D
:1003520012024674FF7BF9FAF9F81201051207AD91
:100362008C0DE47F76FEFDFC120799780112025A89
:10037200E5102FFFE50F3EFEE50E3DFDE50D3C12BB
:1003820007ADF50DFC7802120246E42FFFE43EFEB3
:10039200ED34B4FDEC34091207ADF50D120754C06B
:1003A20004C005C006C007120754D003D002D00112
:1003B200D000120105780D1202467BD07A0B12078B
:1003C200BE7803120246C004C005C006C0077F778C
:1003D2007ED67DFF7CFF1207997801120246D00378
:1003E200D002D001D0001200EA781212076AE42586
:1003F2000CFFE50B3480FEE4350AFDE435097B2B66
:100402007A98120792780F12076AEC4D4E4F7005D8
:10041200FFFEFDFC22C3E49514FFE49513FE741065
:100422009512FDE49511FCC004C005C006C007AFDB
:1004320010AE0FAD0EAC0D780C120246AB07AA0639
:10044200A905A804D007D006D005D0041200F77B76
:10045200357A0C1207BE1207A4E4FFFEFD7C80ABC6
:1004620018AA17A916A815C3120222AB0CAA0BA927
:100472000AA8095011C000120761780112025AD06D
:1004820000120190800F120761120190E47B02FAC0
:10049200F9F81201051207A4120761780312023358
:1004A200C004C005C006C0071207617803120233F8
:1004B200D003D002D001D000120105780D12023310
:1004C200E47B707A17F9F8120105780C12076A12A8
:1004D200076178021202337BF87AC679FF78FF123D
:1004E2000105780D1202461207AD8C0DE50C2510A0
:1004F200FFE50B350FFEE50A350EFDE509350DFC6E
:10050200EF248CFFEE343C78041207B4AB18AA1720
:0A051200A916A8151200EA1207A4AA
:10051C0022120DD1E5144FFFE513FEE512FDE51196
:07052C008F148E138D1222C3
:0A0F8100EF131313541F2441F8224C
:10099800C2857F14120E6BD2852085FD3085FD201F
:1009A80085FDE4FF120F81C000E6FE25E0D000F6C9
:1009B8003085FD120F0D120F81E6FEA285E4334E3D
:1009C800F62085FD0FBF28DCE5412543FFE433FE13
:1009D8007C00EFB5450BECB506077B007A00794142
:0709E800227B007AFF79FF7A
:0109EF0022E5
:100D6500255248004D41583A2000685061004D49D0
:100D75004E3A20000814080704040700574D41584F
:060D85002F4D494E3A001B
:100EEA00E47BE87A03F9F8AF2FAE2EAD2DAC2C02D5
:020EFA00019065
:100ED800AE07EEC3940A50057F30120F69AF0602C1
:020EE8000FC435
:100636007F02120D8B750902E509F4600E1207217F
:1006460060057F3A120F69150980ED7F20120F6948
:10065600C3E5336480948050177F2D120F69E5320D
:1006660070047F0180027F00EF04FF120FC4800A2E
:100676007F20120F69AF32120ED87F2E120F69AE8D
:1006860033AF347C007D641200B4AF05120ED8E49B
:10069600FF120F697FC0120D8B75090412072164C2
:1006A6000660057F2F120F690509E509D3940640F8
:1006B600EB7F20120F69054DE54DD3940C4003E402
:1006C600F54DE54DD394064030120EEA120FC412D2
:1006D6000EEAAC00AD01AE02AF03E47B64FAF9F8B2
:1006E600120190120FC47F2E120F69E47B64FA1276
:1006F6000EEFAF03120ED8801D7F20120F69AB36A6
:10070600AA37A9381200192402FF120FC47BFF7AF8
:0B0716000D7965120DF37F20020F69C2
:10072100AB29AA2AA92B850982758300120032FF01
:06073100120ED8E50922BA
:100A45007F02120A8C7509017F20120F69AD09E436
:100A5500FF120E33120ED8E509C394035005E4FFC7
:100A6500120F69E509B402057FC0120A8CE5096415
:100A7500036005E509B404057F25120F690509E53D
:060A850009D3940440C2F5
:0E0A8B0022120D8B7BFF7A0D7982120DF32261
:1009F0007F02120D8B7BFF7A0D7969120DF37D0555
:100A0000120A3C7D06120A3C7BFF7A0D796F120DAB
:100A1000F37FC0120D8B7BFF7A0D7973120DF37D7E
:100A200007E4FF120E33120FC47D08E4FF120E33E9
:100A3000120FC47BFF7A0D796F020DF3E4FF120EE3
:050A400033120FC42277
:0F0F2D00EFC4540F75F00AA4FEEF540F2EFF22ED
:100B2700120F3CE4FD7F68120C50E4FF120EB01266
:100B37000F3C0D7F68120C50E4FCE4FF120B590CBC
:100B4700BC07F77F01120B59120F4B7B007A007914
:010B57003964
:0E0B580022120DD1120F2D74392CF8A607228F
:060C84008B4A8A4B894CEB
:100C8A00120F3CE4FD7F68120C50E4FF120EB0AB69
:100C9A004AAA4BA94CEDFF3395E08F82F5831200E7
:0C0CAA0032FF120EB00DBD07E6020F4B2A
:010FE60057B3
:070FBD00900FE6E493FF2210
:100D1400AC05AA0753040F120F3C120FBDE4FD12D9
:100D24000C50AF02120EB0AF04120EB0AF03120E8D
:090D3400B0120F4B7F0A020E6B96
:100E9C00120F3C120FBD7D01120C507F01120DD1AF
:030EAC00120F4BD7
:010EAF002220
:100E3300AC05AB07120F3C120FBDE4FD120C50AF13
:0D0E430003120EB0AF04120EB0120E9C226E
:010FE70057B2
:100CE500E47BE87A03F9F8AF2FAE2EAD2DAC2C02DC
:100CF5000190AC00AD01AE02AF03E47B64FAF9F8F4
:0F0D0500020190AB36AA37A93812001924022236
:100A9900D3E532648094D5503A7FB07EAD7D017C38
:100AA90000AB2FAA2EA92DA82C1202225025E47FD3
:100AB9002C7E01FDFCA82CC31202224016120D083F
:100AC900FFE433FED3EF9464EE648094805004EF26
:090AD9004E70037F01227F002210
:100CB6008B09A907AA05E4FF120E33E9D39F400961
:100CC600AD02AB01E4FF120D14AD09E4FF120E33C1
:0F0CD600E9C39F5009AB01AD09E4FF120D1422D1
:1008D700120A99EF64016056AB327D01E4FF120DF5
:1008E70014AB327D02E4FF120D14120D08FB7D03D9
:1008F700E4FF120D14120D08FB7D04E4FF120D1422
:10090700120CE57D05120936120CE5120CF77D066F
:10091700120936120CE5AB077D07E4FF120D14121E
:100927000CE5120CF7AB077D08E4FF120D1422ABA0
:0709370007E4FF120D14227A
:100B6600120A99EF640160347B027D01AF32120CE8
:100B7600B6AB36AA37A938900002120032FF7B04C2
:100B86007D03120CB6120CE57B077D05120CB6121E
:0D0B96000CE5120CF77B087D06120CB62250
:050FD000D280D2812255
:080F9E00D281120FD5C281229D
:0F0F3C00D280D281120FD5C280120FD5C281226E
:0F0F4B00C281C280120FD5D281120FD5D280225F
:100C5000C3EF648094884008D3EF648094F8400325
:100C60007F02227E07EF25E0FF339280120F9EDE87
:100C7000F4ED24FF9280120F9ED280120F9EA2806C
:030C8000E433FF5B
:010C8300224E
:100DD100E4FED2807D08D281EE25E0FEA280E433DC
:100DE1004206120F9EDDEFEF24FF9280120F9EAF9D
:010DF10006FB
:010DF20022DE
:100EB0007E08EF339280120F9EEF25E0FFDEF3D223
:040EC00080020F9EFF
:080FA600081408070404070009
:100EFC00AB0AAA0BA90C850D82758300120032FF78
:010F0C0022C2
:100D3D007F0F120E6B7F38120D567F0C120D567FE2
:100D4D0001120D8B7F02020E6B120D8B120F1D7F88
:080D5D0006120D8B120F1D227E
:060BA3008B098A0A890B90
:100BA900ED75F008A42440FF120D8BE4F50CAB0998
:100BB900AA0AA90BAF0CEF3395E08F82F5831200D7
:100BC90032FF120F69050CC3E50C6480948840DE7E
:050BD9007F80020D8B7E
:100D8B008FA0C286D287120F1DC287EF6401600D40
:100D9B00EF64026008EF64806003BFC0057F02123E
:030DAB000E6B22AA
:0C0F69008FA0D286D287120F1DC28722F3
:060DF3008B0A8A0B890C3B
:100DF900E4F50D120EFC6012B40A05120F5A8006B2
:0A0E0900120EFC120F69050D80E9BE
:010E130022BC
:060FC400120C18020DF3EF
:0F0F5A002000047FC080027F80120D8BB2002226
:090F9500081408070404070057C2
:100AE200AB29AA2AA92B900005120032C3940A400E
:100AF20033900005120032C394045028900002740F
:100B02000112005F900002120032D394174015AB1D
:100B120029AA2AA92B900002E412009290000374E1
:050B22000112005F223A
:10093E00120B278B298A2A892B1205338E338F347B
:10094E001202C28F2F8E2E8D2D8C2CD5350C753517
:10095E00061209988B368A378938120AE2AE33AFFF
:10096E00347C007D641200B48F32E530D3940240A3
:10097E0003E4F530E53014600A14600A24027009AD
:0A098E00020636020A451209F022A3
:100E8400309105753101C29330900C05307F011209
:080E94000D8B7F64120E6B222E
:100850007590FF75A0FF75B0FFC291C290120FDFB7
:100860007FFF120E6B7FFF120E6B120F75C2931279
:100870000D3DC293120FD07BFF7A0F7995E4FD12E4
:100880000BA3120E147DF57F64120E507DF47FFFD2
:10089000120E501209988B368A3789381205331296
:1008A0000EC412093E120B66E4FE7F64120E6B1238
:1008B0000E840EBE06F4E508D3940A4005E4F5085C
:1008C000F531E531B4010205082091D3E50870CF78
:0708D000A292B3929380C8CD
:0C0F7500438920759850758DFDD28E22A6
:060FCA00120C18020DAE2E
:060DAE008B098A0A890B83
:100DB400E4F50CAB09AA0AA90B850C827583001211
:0C0DC4000032FF6007120FAE050C80E744
:010DD0002200
:080FAE008F993099FDC29922D0
:090F8B00E4FF309804C298AF990C
:010F9400223A
:100C1800E4FDEF75F00A84E5F02430FE74462DF803
:100C2800A606EF75F00A84FE700874472DF8E4F6FE
:100C38008006AF060DBD04DA7B007A007946120BF8
:070C4800DE7B007A00794613
:010C4F002282
:060BDE008B0A8A0B890C52
:100BE400E4FFEFC39D502CAB0AAA0BA90C8F8275AE
:100BF4008300120032FE8D827583001200328F82D0
:100C04007583001200928D82758300EE1200920F9C
:030C14001D80CF71
:010C170022BA
:040FDF00438901221F
:100E6B00EFD394004010758CFC758A17D28C308DA3
:080E7B00FDC28D1F80EAC28C4C
:010E8300224C
:050FD5000000000022F5
:100F0D00758CFF758AF1D28C308DFDC28CC28D220D
:100F1D00758CFF758AE3D28C308DFDC28CC28D220B
:050FDA00440D0A005760
:030FE3000208D72A
:100EC400120F8BEF249D7003120FE37BFF7A0F79CF
:040ED400DA020DAE83
:1007D000020850E493A3F8E493A34003F68001F2E7
:1007E00008DFF48029E493A3F85407240CC8C3332A
:1007F000C4540F4420C8834004F456800146F6DFF9
:10080000E4800B0102040810204080900FB6E47EC3
:10081000019360BCA3FF543F30E509541FFEE493ED
:10082000A360010ECF54C025E060A840B8E493A3B4
:10083000FAE493A3F8E493A3C8C582C8CAC583CADF
:10084000F0A3C8C582C8CAC583CADFE9DEE780BE97
:010FBC000034
:10001900BB010689828A83E0225002E722BBFE02E5
:09002900E32289828A83E4932218
:10003200BB010CE58229F582E5833AF583E0225083
:1000420006E92582F8E622BBFE06E92582F8E222CD
:0D005200E58229F582E5833AF583E49322E7
:10005F00BB010FF8E58229F582E5833AF583E028A5
:10006F00F0225009C58229F8E58226F622BBFE0947
:10007F00C58229F8E22582F222F8EA2583F583E981
:03008F0093282291
:10009200F8BB010DE58229F582E5833AF583E8F0A4
:1000A200225006E92582C8F622BBFE05E92582C850
:0200B200F22238
:1000B400C2D5EC30E709B2D5E4C39DFDE49CFCEE67
:1000C40030E715B2D5E4C39FFFE49EFE12026DC370
:1000D400E49DFDE49CFC800312026D30D507C3E46B
:0600E4009FFFE49EFE22D6
:0D00EA00EF2BFFEE3AFEED39FDEC38FC2265
:0E00F700C3EF9BFFEE9AFEED99FDEC98FC2204
:10010500E88FF0A4CC8BF0A42CFCE98EF0A42CFC99
:100115008AF0EDA42CFCEA8EF0A4CDA8F08BF0A417
:100125002DCC3825F0FDE98FF0A42CCD35F0FCEB76
:100135008EF0A4FEA9F0EB8FF0A4CFC5F02ECD393B
:0F014500FEE43CFCEAA42DCE35F0FDE43CFC22A8
:1001540075F008758200EF2FFFEE33FECD33CDCC62
:1001640033CCC58233C5829BED9AEC99E5829840E5
:100174000CF582EE9BFEED9AFDEC99FC0FD5F0D6C2
:10018400E4CEFBE4CDFAE4CCF9A88222B800C1B9EC
:100194000059BA002DEC8BF084CFCECDFCE5F0CB2A
:1001A400F97818EF2FFFEE33FEED33FDEC33FCEB63
:1001B40033FB10D703994004EB99FB0FD8E5E4F91E
:1001C400FA227818EF2FFFEE33FEED33FDEC33FC0B
:1001D400C933C910D7059BE99A4007EC9BFCE99AFF
:1001E400F90FD8E0E4C9FAE4CCFB2275F010EF2F44
:1001F400FFEE33FEED33FDCC33CCC833C810D70744
:100204009BEC9AE899400AED9BFDEC9AFCE899F87E
:0E0214000FD5F0DAE4CDFBE4CCFAE4C8F92211
:10022200EB9FF5F0EA9E42F0E99D42F0E89C45F032
:0102320022A9
:10023300E8600FECC313FCED13FDEE13FEEF13FFA9
:03024300D8F122CD
:10024600E86010ECA2E713FCED13FDEE13FEEF13CE
:04025600FFD8F022BB
:10025A00E8600FEFC333FFEE33FEED33FDEC33FC02
:03026A00D8F122A6
:10026D00BC000BBE0029EF8DF084FFADF022E4CC75
:10027D00F875F008EF2FFFEE33FEEC33FCEE9DEC3E
:10028D00984005FCEE9DFE0FD5F0E9E4CEFD22ED84
:10029D00F8F5F0EE8420D21CFEADF075F008EF2FCE
:1002AD00FFED33FD4007985006D5F0F222C398FDBF
:0502BD000FD5F0EA225C
:00000001FF
