:0300000002095E94
:0C095E00787FE4F6D8FD7581370209A50A
:1009EA00010DDF010BE901097E010A7F01080101FE
:0809FA000C02010E80010FC088
:0A0BA300C29071347FFF514B80FEB9
:100A02000115DF0113E901117E01127F01100101BD
:080A120014020116800117C057
:100B6E00AB34AA35A936853782758300310FFF2243
:100B34007F0F71007F38717E7F0571007F06717EA3
:080B44007F0F717EAF10617E8E
:0D0B7E00C2808FA0C2817F96711AD28122A1
:0D0B8B00D2808FA0C2817F64711AD28122B6
:030BB200B29022DC
:060AC3008B348A358936F0
:100AC900E4F537F537716E600FB40A04715E80047E
:080AD900716E718B053780ED91
:010AE10022F2
:100A4B008F30E4FDEF75F00A84E5F02430FE74314D
:100A5B002DF8A606EF75F00A84FE7010C3ED6480C6
:100A6B009483500874322DF8E4F68006AF060DBD62
:100A7B0003D27B007A007931518D7B007A0079317A
:020A8B0041C365
:060A8D008B348A35893626
:100A9300E4FFEFC39D5028AB34AA35A9368F827586
:100AA3008300310FFE8D82758300310F8F82758332
:0F0AB30000313C8D82758300EE313C0F1D80D3E6
:010AC2002211
:100B5E00200006AF17717E8004AF16717EB20022A0
:050BAD00000000000043
:100A1A000125DF0123E901217E01227F0120010155
:080A2A0024020126800127C00F
:100B4C00781B7C007D007BFF7A0B79AD7E007F05E6
:020B5C0001D0C6
:100AE200900002310FFF11F62FFFE433FE90000455
:0E0AF200310F6F7001EE60037FFF227F012243
:100A3200012DDF012BE901297E012A7F0128010115
:080A42002C02012E80012FC0DF
:010BB500221D
:0B0B98002091073093047FF4710022CD
:010BB600221C
:100B0000D289D28CD28AE4FEEEC39F500CD28C30B4
:090B10008DFDC28CC28D0E80EF38
:010B190022B9
:100B1A00D289D28CD28AE4FEEEC39F500CD28C309A
:090B2A008CFDC28CC28D0E80EF1F
:010B3300229F
:10096A00020BA3E493A3F8E493A34003F68001F2F5
:10097A0008DFF48029E493A3F85407240CC8C3338E
:10098A00C4540F4420C8834004F456800146F6DF5D
:10099A00E4800B01020408102040809009EAE47EFA
:1009AA00019360BCA3FF543F30E509541FFEE49352
:1009BA00A360010ECF54C025E060A840B8E493A319
:1009CA00FAE493A3F8E493A3C8C582C8CAC583CA44
:1009DA00F0A3C8C582C8CAC583CADFE9DEE780BEFC
:010A4A0000AB
:10080000E709F608DFFA8046E709F208DFFA803EDA
:1008100088828C83E709F0A3DFFA8032E309F608C7
:10082000DFFA8078E309F208DFFA807088828C832F
:10083000E309F0A3DFFA806489828A83E0A3F608E3
:10084000DFFA805889828A83E0A3F208DFFA804CBD
:1008500080D280FA80C680D4806980F28033801094
:1008600080A680EA809A80A880DA80E280CA8033FD
:1008700089828A83ECFAE493A3C8C582C8CCC58375
:10088000CCF0A3C8C582C8CCC583CCDFE9DEE78045
:100890000D89828A83E493A3F608DFF9ECFAA9F0C4
:1008A000EDFB2289828A83ECFAE0A3C8C582C8CC1A
:1008B000C583CCF0A3C8C582C8CCC583CCDFEADE33
:1008C000E880DB89828A83E493A3F208DFF980CC95
:1008D00088F0EF60010E4E60C388F0ED2402B4048E
:1008E0000050B9F582EB2402B4040050AF23234535
:0608F00082239008507302
:1008F600BB010689828A83E0225002E722BBFE0200
:09090600E32289828A83E4932232
:10090F00BB010CE58229F582E5833AF583E022509D
:10091F0006E92582F8E622BBFE06E92582F8E222E7
:0D092F00E58229F582E5833AF583E4932201
:10093C00F8BB010DE58229F582E5833AF583E8F0F1
:10094C00225006E92582C8F622BBFE05E92582C89D
:02095C00F22285
:00000001FF
