:0300000002046F88
:0C046F00787FE4F6D8FD75815B0204B6CE
:100C8E000814080704040700DFE90406010280C007
:0F0CEE00AB36AA37A938853982758300020027F3
:1009A5007F0F120BD47F38120B421200061209C6B4
:1009B5001209C6900C9AE493FF120B427F02020BB8
:1009C500D47F0E120B421200067F06120B42120054
:0209D5000622F8
:0608C7008B1A8A1B891C3C
:1008CD00ED75F008A42440FF120B42E4F51DAB1AA0
:1008DD00AA1BA91CAF1DEF3395E08F82F583120083
:1008ED0027FF120D43051DC3E51D6480948840DE6E
:0508FD007F80020B42A8
:100B42008FA0C293D294C294900C9AE4936F6006E1
:0F0B5200A3E493B507057F02020BD4120006221D
:0B0D43008FA0D293D294C2940200064D
:060AB8008B368A378938F5
:100ABE00E4F539120CEEFF6013B40A05120C6780D0
:0C0ACE0007120CEEFF120D43053980E703
:010ADA0022F9
:1007C300E4FDEF75F00A84E5F02430FE74422DF861
:1007D300A606EF75F00A84FE7010C3ED648094835F
:1007E300500874432DF8E4F68006AF060DBD03D21E
:1007F3007B007A0079421209717B007A0079420208
:020803000AB831
:060971008B218A2289237C
:10097700E4FFEFC39D5026AB21AA22A9238F821241
:100987000CF7FE8D82120CF78F82758300120054CC
:0D0997008D82758300EE1200540F1D80D577
:0109A4002230
:100C6700200005900C9D8003900C9CE493FF120BD1
:040C770042B2002263
:100B21002050505050685061000814080704040711
:100B310000DFE90406010280C0766B706743FC1890
:010B4100575C
:100BB900900001AB48AA49A94A020027AB48AA49B3
:0B0BC900A94A02000E90000202002763
:090D59007BFF7A0B7921020AB834
:100A09001204FB8B458A46894712000E2402FF1205
:100A190007C3E4FF120D437F20120D43AB45AA46DD
:0E0A2900A94712000EFF1207C37F25020D43DE
:10034500900B38E493FF120B4212072C8B488A4915
:10035500894A120BCE120465120BB9120465120BF1
:10036500C5FF1207C37F20120D43120A09900B39EE
:10037500E493FF120B42900004120BBC1204389058
:100385000005120027120438900006120027FF12FC
:1003950007C3120BC5540FFD7F01120A8F120BC53F
:1003A50012045812000E7F0212041412000E1204D9
:1003B50048120BB9540FFD7F03120A8F120BB95463
:1003C5000FFF120847120BB97F04120414900001A5
:1003D500120027120448AB48AA49A94A120BCE7F3E
:1003E50005120425120458120BCE75F00A847F06F7
:1003F50012042575F00A84540FFF1208477F201256
:0F0405000D747F0D120D747F0A120D74020D59C4
:1004140075F00A84540FFD120A8FAB48AA49A94A01
:1004240022540FFD120A8FAB48AA49A94A90000230
:1004340012002722FF1207C37F2F120D43AB48AAD5
:1004440049A94A2275F00A84540FFF1208477F20F5
:10045400120D7422540FFF120847AB48AA49A94A47
:0B04640022FF1207C37F3A120D432253
:10077800E4F519120D907FFF120BD4120D37120DEC
:100788002A1209A5C291120D8B7BFF7A0B792AE4F4
:10079800FD1208C7120B617DF47FFF120BEE7DF589
:1007A8007F64120BEE1201BA1207B81207B880F56F
:0B07B8007FFF120BD47FFF120BD42236
:100C9E000814080704040700DFE90406010280C0F7
:0B0D4E00E557131313541F243AF8223A
:1004FB00C2877F14120BD4D2872087FD3087FD2053
:10050B0087FDE4F557120D4EC000E6FF25E0D00045
:10051B00F63087FD120CBE120D4EE6FFA287E433B8
:10052B004FF62087FD0557E557C3942840D7E53A8A
:10053B00253CFFE433FE7C00EFB53E24ECB50620F2
:10054B00AF3A1207C37F25120D437F20120D43AF25
:10055B003C1207C3E4FF120D437B007A00790022A3
:06056B007B007AFF79FF1E
:010571002267
:100CAE000814080704040700DFE90406010280C0E7
:0D0D2A00D288D2A8D2AFD28AD2AAC291221A
:090D6200209203D29122C29122D9
:030003000205DD16
:1005DD00C0E0C0F0C083C08263A201C083C082C0EE
:1005ED00D075D000C000C001C002C003C004C0055A
:0405FD00C006C0076D
:10060100209215C2917524007FC8120BD40524E5F0
:0806110024C3941940F2D291B8
:10061900D007D006D005D004D003D002D001D00035
:10062900D0D0D082D08363A201D082D083D0F0D041
:02063900E032AD
:03000B0002068E5C
:10068E00C0E0C0F0C083C08263A201C083C082C03C
:10069E00D075D000C000C001C002C003C004C005A8
:1006AE00C006C007900CBAE493FF120B42D007D0DD
:1006BE0006D005D004D003D002D001D000D0D0D0C7
:0F06CE0082D08363A201D082D083D0F0D0E032FB
:040D90004389012270
:100BD400E4FEEEC39F5010758CFC758A17D28C30DE
:090BE4008DFDC28D0E80EBC28C68
:010BED0022E5
:050006000000000022D3
:100CBE00758CFF758AF1D28C308DFDC28CC28D225F
:010D9400223C
:100CCE000814080704040700DFE90406010280C0C7
:050D8B00D280D281229C
:0F0CFD00D280D281120006C280120006C281226C
:0F0D0C00C281C280120006D281120006D280225C
:040805008F1E8D1F96
:10080900752001E51E25E0F51E3312083D0520C3BC
:10081900E5206480948840EBE51F24FF12083DD24F
:1008290080120006D281A280E433F521120006C2AB
:0308390081AF216B
:0B083C00229280D281120006C28122AD
:02093A008F1E0E
:10093C00E4F520D280F51FE52025E0F520D281A238
:10094C0080E4334220120006C281051FC3E51F64F8
:10095C0080948840E2E51E24FF9280D2811200062A
:04096C00C281AF2075
:010970002264
:020A37008F1E10
:100A3900E4F51FE51E339280D281120006C281E5DA
:100A49001E25E0F51E051FC3E51F6480948840E359
:090A5900D280D281120006C28194
:010A62002271
:100A6300755108120CFDE4FDAF511208058F5212A7
:100A73000D0CE552700AAF511207C37F20120D43CC
:0B0A83000551C3E551648094F840D891
:010A8E002245
:100B9D00454E443A00766B706743FC1808140807FD
:0C0BAD0004040700DFE90406010280C018
:100C0800040800000000040C0000000004100000AC
:080C18000000041400000000BC
:10063B007804AF0BAE0AAD09AC08020193900BA284
:10064B00E493FFE4FD22AE0AAD0978081201A78FEF
:10065B000B8E0A8D098C0822900BA3E493FE740178
:10066B0093FF22900BA2E493FF7D0122C3EF9BFF2C
:10067B00EE9AFEED99FDEC98FC22EE3395E0FDFC35
:03068B00020076F4
:100B6100120CFD1206481208057FE0120A37120C1A
:0F0B7100FD1206481208057FB6120A37020D0C56
:100BEE008F1A8D1B120CFD120648120805AF1B1230
:0A0BFE000A37AF1A120A37020D0C75
:10057200120CFD1206481208057F88120A37120C67
:10058200FD12066E120805E4F5581205CC7F201202
:100592000D741205CC1205D5120D740558C3E55819
:1005A2006480948C40E47F0112093A120847120DCC
:1005B2000C1205D5120D747BFF7A0B799D120ADBA2
:0A05C2007F0D120D747F0A020D7404
:1005CC00E4FF12093A120847227F0D120D747F0ABC
:0105DC0022FC
:1001BA00E4F51DF51CF51BF51A120CFD1206481282
:1001CA0008057FFA120A37120CFD12066E1208058C
:1001DA00E4FF12093AE48F0BF50AF509F508AC08B1
:1001EA00120651E4FF120330AF0BFC1206517F01D5
:1001FA00120330120D0C12063B12065A120663E461
:10020A00FCFD78011201A7C004C005C006C007782A
:10021A000312063DD003D002D001D000C3EF9BFBEE
:10022A00EE9AFAED99F9EC98F8900BA51206661277
:10023A000685780B1201938F0F8E0E8D0D8C0C1282
:10024A000663E4FCFDC004C005C006C00712063BF5
:10025A00D003D002D001D000120677C004C005C076
:10026A0006C007120666E4FCFDC004C005C006C04D
:10027A000712063BD003D002D001D000120677D075
:10028A0003D002D001D000120076780C120193A894
:10029A0004A905AA06AB07900BA7120666120685E3
:1002AA00780E1201938F138E128D118C10E50F2583
:1002BA0013F517E50E3512F516E50D3511F515E5A9
:1002CA000C3510F514E47F05FEFDFCAB17AA16A940
:1002DA0015A814120076EF2480FFE43EFEE43DFDEB
:1002EA00E43CFC78081201938F1D8E1C8D1B8C1A1E
:1002FA00E47B64FAF9F81201011208477F2E120D05
:10030A0074E47B64FAF9F8AF1DAE1CAD1BAC1A128B
:10031A000101AF031208477F0D120D747F0A120DF7
:05032A0074AE16AF17D0
:10032F002212093AE50B4FF50BE50AF50AE509F537
:06033F0009E508F50822A3
:1006DD00120CFD1206481208057FFA120A37120D88
:1006ED000C120CFD12066E120805120719120719CD
:1006FD007F0112093A1208477F0D120D747F0A12FD
:0B070D000D74120D0C7B007A007926A1
:1007180022E4FF12093A1208477F0D120D747F0A6E
:04072800120D742218
:100CDE000814080704040700DFE90406010280C0B7
:0C0D3700438920759850758DFFD28E22E4
:10084700E4FDEF75F00A84E5F02430FE741E2DF800
:10085700A606EF75F00A84FE7010C3ED64809483DA
:100867005008741F2DF8E4F68006AF060DBD03D2BD
:100877007B007A00791E1209717B007A00791E02CB
:020887000ADB8A
:060ADB008B218A22892311
:100AE100E4FFAB21AA22A9238F827583001200277C
:0C0AF100600AF5993099FDC2990F80E66B
:010AFD0022D6
:080D74008F993099FDC299220C
:080D7C003098FDC298AF9922E6
:010D95005706
:070D8400900D95E493FF229E
:100AFE008F4B8D4C8B4D120CFD120D84E4FD1208A4
:100B0E0005AF4B120A37AF4C120A37AF4D120A37E8
:030B1E00020D0CB9
:080D6B008B318A3289338D348B
:010D7300225D
:10090200E4F550F54EE4F54FAB50AD4FAF4E120A41
:10091200FE635001AF4E1208477F20120D747F0A0A
:10092200120BD4054FE54FC394FF40DC054EE54E54
:07093200C3940F40D07F00C9
:01093900229B
:1009D700E4F553E4F554AD54AF53120B80120847B6
:1009E7007F20120D740554E554C394FF40E87F0D32
:1009F700120D747F0A120D740553E553D3940F40FB
:010A0700D21C
:010A080022CB
:100C2100120CFD120D847D011208057F0112093A93
:070C31008F59120D0CAF59A1
:010C38002299
:040B80008F558D56AA
:100B8400120CFD120D84E4FD120805AF55120A374C
:080B9400AF56120A37120C21C2
:010B9C002236
:100C3900120C517D017F0A120A8F7D017F0C120A65
:080C49008F7D077F0B020A8F6B
:100C5100755A01E4FDAF5A120A8F055AC3E55A6469
:050C610080948940EEC3
:010C6600226B
:100A8F00C2B6E4FEEF3392B7D2B5EF25E0FFC2B5A1
:100A9F000EBE08F0E4FEED3392B7D2B5ED25E0FDC2
:080AAF00C2B50EBE08F0D2B67C
:010AB700221C
:100C7B00EF75F00A84C454F0FEEF75F00A84EE258C
:030C8B00F0FF2255
:0F0D1B00EFC4540F75F00AA4FEEF540F2EFF2201
:10072C00120CFDE4FD7F68120805E4FF120A371273
:10073C000D0C120CFD7D017F68120805E4F55BE4DD
:10074C00FF12076A055BC3E55B6480948740F07F0A
:0D075C000112076A120D0C7B007A00792B48
:0F0769002212093A120D1B742B255BF8A60722EA
:060889008B3E8A3F89400E
:10088F00120CFD7D017F68120805E4FF120A37E4A0
:10089F00F541AB3EAA3FA940AE02AF01EF4E601546
:1008AF00AF41EF3395E08F82F583120027FF120AD5
:0808BF0037054180DD020D0C3C
:10047B00020778E493A3F8E493A34003F68001F218
:10048B0008DFF48029E493A3F85407240CC8C33382
:10049B00C4540F4420C8834004F456800146F6DF51
:1004AB00E4800B0102040810204080900C08E47ECD
:1004BB00019360BCA3FF543F30E509541FFEE49346
:1004CB00A360010ECF54C025E060A840B8E493A30D
:1004DB00FAE493A3F8E493A3C8C582C8CAC583CA38
:1004EB00F0A3C8C582C8CAC583CADFE9DEE780BEF0
:010C200000D3
:10000E00BB010689828A83E0225002E722BBFE02F0
:09001E00E32289828A83E4932223
:10002700BB010CE58229F582E5833AF583E022508E
:1000370006E92582F8E622BBFE06E92582F8E222D8
:0D004700E58229F582E5833AF583E49322F2
:10005400F8BB010DE58229F582E5833AF583E8F0E2
:10006400225006E92582C8F622BBFE05E92582C88E
:02007400F22276
:10007600E88FF0A4CC8BF0A42CFCE98EF0A42CFC29
:100086008AF0EDA42CFCEA8EF0A4CDA8F08BF0A4A7
:100096002DCC3825F0FDE98FF0A42CCD35F0FCEB06
:1000A6008EF0A4FEA9F0EB8FF0A4CFC5F02ECD39CB
:0F00B600FEE43CFCEAA42DCE35F0FDE43CFC2238
:1000C50075F008758200EF2FFFEE33FECD33CDCCF2
:1000D50033CCC58233C5829BED9AEC99E582984075
:1000E5000CF582EE9BFEED9AFDEC99FC0FD5F0D652
:1000F500E4CEFBE4CDFAE4CCF9A88222B800C1B97C
:100105000059BA002DEC8BF084CFCECDFCE5F0CBB9
:10011500F97818EF2FFFEE33FEED33FDEC33FCEBF2
:1001250033FB10D703994004EB99FB0FD8E5E4F9AD
:10013500FA227818EF2FFFEE33FEED33FDEC33FC9A
:10014500C933C910D7059BE99A4007EC9BFCE99A8E
:10015500F90FD8E0E4C9FAE4CCFB2275F010EF2FD3
:10016500FFEE33FEED33FDCC33CCC833C810D707D3
:100175009BEC9AE899400AED9BFDEC9AFCE899F80E
:0E0185000FD5F0DAE4CDFBE4CCFAE4C8F922A1
:10019300E86010ECA2E713FCED13FDEE13FEEF1382
:0401A300FFD8F0226F
:1001A700E8600FEFC333FFEE33FEED33FDEC33FCB6
:0301B700D8F1225A
:00000001FF
