:0300000002046691
:0C046600787FE4F6D8FD75815B0204ADE0
:100CC9000814080704040700DFE90406010280C0CC
:0F0D2900AB36AA37A938853982758300020027B7
:1009E0007F0F120C0F7F38120B7D120006120A01C6
:1009F000120A01900CD5E493FF120B7D7F02020CCA
:100A00000F7F0E120B7D1200067F06120B7D120067
:020A10000622BC
:060902008B1E8A1F8920F4
:10090800ED75F008A42440FF120B7DE4F521AB1E21
:10091800AA1FA920AF21EF3395E08F82F58312003B
:1009280027FF120D7E0521C3E5216480948840DEEF
:050938007F80020B7D31
:100B7D008FA0C293D294C294900CD5E4936F60066B
:0F0B8D00A3E493B507057F02020C0F12000622A6
:0B0D7E008FA0D293D294C29402000612
:060AF3008B368A378938BA
:100AF900E4F539120D29FF6013B40A05120CA2801E
:0C0B090007120D29FF120D7E053980E750
:010B150022BD
:1007FE00E4FDEF75F00A84E5F02430FE74422DF826
:10080E00A606EF75F00A84FE7010C3ED6480948323
:10081E00500874432DF8E4F68006AF060DBD03D2E2
:10082E007B007A0079421209AC7B007A0079420291
:02083E000AF3BB
:0609AC008B218A22892341
:1009B200E4FFEFC39D5026AB21AA22A9238F821206
:1009C2000D32FE8D82120D328F8275830012005419
:0D09D2008D82758300EE1200540F1D80D53C
:0109DF0022F5
:100CA200200005900CD88003900CD7E493FF120B20
:040CB2007DB20022ED
:100B5C0020505050506850610008140807040407D6
:100B6C0000DFE90406010280C0766B706743FC1855
:010B7C005721
:100BF400900001AB48AA49A94A020027AB48AA4978
:0B0C0400A94A02000E90000202002727
:090D94007BFF7A0B795C020AF383
:100A44001204F28B458A46894712000E2402FF12D3
:100A540007FEE4FF120D7E7F20120D7EAB45AA46F1
:0E0A6400A94712000EFF1207FE7F25020D7E2D
:10033C00900B73E493FF120B7D1207238B488A49B1
:10034C00894A120C0912045C120BF412045C120C94
:10035C0000FF1207FE7F20120D7E120A44900B74D0
:10036C00E493FF120B7D900004120BF712042F90F4
:10037C00000512002712042F900006120027FF120E
:10038C0007FE120C00540FFD7F01120ACA120C005A
:10039C0012044F12000E7F0212040B12000E1204F4
:1003AC003F120BF4540FFD7F03120ACA120BF454C4
:1003BC000FFF120882120BF47F0412040B90000141
:1003CC0012002712043FAB48AA49A94A120C097F14
:1003DC000512041C12044F120C0975F00A847F06D6
:1003EC0012041C75F00A84540FFF1208827F20122D
:0F03FC000DAF7F0D120DAF7F0A120DAF020D94E2
:10040B0075F00A84540FFD120ACAAB48AA49A94ACF
:10041B0022540FFD120ACAAB48AA49A94A900002FE
:10042B0012002722FF1207FE7F2F120D7EAB48AA68
:10043B0049A94A2275F00A84540FFF1208827F20C3
:10044B00120DAF22540FFF120882AB48AA49A94ADA
:0B045B0022FF1207FE7F3A120D7E22E6
:10076F00E4F51D120DCB7FFF120C0F120D72120D3F
:10077F00651209E0C291120DC67BFF7A0B7965E411
:10078F00FD120902120B9C7DF47FFF120C297DF5DF
:10079F007F64120C291201BA1207AF1207AF80F54E
:0B07AF007FFF120C0F7FFF120C0F22C7
:100CD9000814080704040700DFE90406010280C0BC
:0B0D8900E557131313541F243AF822FF
:1004F200C2877F14120C0FD2872087FD3087FD2020
:1005020087FDE4F557120D89C000E6FF25E0D00013
:10051200F63087FD120CF9120D89E6FFA287E4334B
:100522004FF62087FD0557E557C3942840D7E53A93
:10053200253CFFE433FE7C00EFB53E24ECB50620FB
:10054200AF3A1207FE7F25120D7E7F20120D7EAF7D
:100552003C1207FEE4FF120D7E7B007A0079002236
:060562007B007AFF79FF27
:010568002270
:100CE9000814080704040700DFE90406010280C0AC
:0D0D6500D288D2A8D2AFD28AD2AAC29122DF
:090D9D00209203D29122C291229E
:030003000205D41F
:1005D400C0E0C0F0C083C08263A201C083C082C0F7
:1005E400D075D000C000C001C002C003C004C00563
:0405F400C006C00776
:1005F800209215C2917524007FC8120C0F0524E5BE
:0806080024C3941940F2D291C1
:10061000D007D006D005D004D003D002D001D0003E
:10062000D0D0D082D08363A201D082D083D0F0D04A
:02063000E032B6
:03000B0002068565
:10068500C0E0C0F0C083C08263A201C083C082C045
:10069500D075D000C000C001C002C003C004C005B1
:1006A500C006C007900CF5E493FF120B7DD007D070
:1006B50006D005D004D003D002D001D000D0D0D0D0
:0F06C50082D08363A201D082D083D0F0D0E03204
:040DCB004389012235
:100C0F00E4FEEEC39F5010758CFC758A17D28C30A2
:090C1F008DFDC28D0E80EBC28C2C
:010C280022A9
:050006000000000022D3
:100CF900758CFF758AF1D28C308DFDC28CC28D2224
:010DCF002201
:100D09000814080704040700DFE90406010280C08B
:050DC600D280D2812261
:0F0D3800D280D281120006C280120006C2812230
:0F0D4700C281C280120006D281120006D2802221
:040840008F208D2157
:10084400752201E52025E0F520331208780522C33E
:10085400E5226480948840EBE52124FF120878D2D5
:1008640080120006D281A280E433F523120006C26E
:0308740081AF232E
:0B087700229280D281120006C2812272
:020975008F1ED3
:10097700E4F520D280F51FE52025E0F520D281A2FD
:1009870080E4334220120006C281051FC3E51F64BD
:1009970080948840E2E51E24FF9280D281120006EF
:0409A700C281AF203A
:0109AB002229
:020A72008F20D3
:100A7400E4F521E520339280D281120006C281E59B
:100A84002025E0F5200521C3E5216480948840E316
:090A9400D280D281120006C28159
:010A9D002236
:100A9E00755108120D38E4FDAF511208408F5212F5
:100AAE000D47E552700AAF511207FE7F20120D7EE0
:0B0ABE000551C3E551648094F840D856
:010AC900220A
:100BD800454E443A00766B706743FC1808140807C2
:0C0BE80004040700DFE90406010280C0DD
:100C4300040800000000040C000000000410000071
:080C5300000004140000000081
:100632007804AF0BAE0AAD09AC080200C5900BDD21
:10064200E493FFE4FD22AE0AAD0978081200D98FC7
:100652000B8E0A8D098C0822900BDEE493FE740146
:1006620093FF22900BDDE493FF7D0122C3EF9BFFFA
:10067200EE9AFEED99FDEC98FC22EE3395E0FDFC3E
:03068200020076FD
:100B9C00120D3812063F1208407FE0120A72120D35
:0F0BAC003812063F1208407FB6120A72020D4738
:100C29008F1E8D1F120D3812063F120840AF1F127A
:0A0C39000A72AF1E120A72020D4784
:10056900120D3812063F1208407F88120A72120DC6
:1005790038120665120840E4F5581205C37F2012A7
:100589000DAF1205C31205CC120DAF0558C3E558BE
:100599006480948C40E47F01120975120882120D5F
:1005A900471205CC120DAF7BFF7A0B79D8120B16C7
:0A05B9007F0D120DAF7F0A020DAF97
:1005C300E4FF120975120882227F0D120DAF7F0A14
:0105D3002205
:1001BA00120D3812063F1208407FFA120A72120D07
:1001CA0038120665120840E4FF120975E48F0BF530
:1001DA000AF509F508AC08120648E4FF120327AF2E
:1001EA000BFC1206487F01120327120D4712063232
:1001FA0012065112065AE4FCFD78011200D9C00415
:10020A00C005C006C0077803120634D003D002D056
:10021A0001D000C3EF9BFBEE9AFAED99F9EC98F83E
:10022A00900BE012065D12067C780B1200C58F0F48
:10023A008E0E8D0D8C0C12065AE4FCFDC004C0050E
:10024A00C006C007120632D003D002D001D0001275
:10025A00066EC004C005C006C00712065DE4FCFDB8
:10026A00C004C005C006C007120632D003D002D0AF
:10027A0001D00012066ED003D002D001D0001200C5
:10028A0076780C1200C5A804A905AA06AB07900B3C
:10029A00E212065D12067C780E1200C58F138E12CA
:1002AA008D118C10E50F2513F517E50E3512F5168D
:1002BA00E50D3511F515E50C3510F514E47F05FE4D
:1002CA00FDFCAB17AA16A915A814120076EF248014
:1002DA00FFE43EFEE43DFDE43CFC78081200C58FD5
:1002EA001B8E1A8D198C18E47B64FAF9F81207BA76
:1002FA001208827F2E120DAFE47B64FAF9F8AF1B65
:10030A00AE1AAD19AC181207BAAF031208827F0DE4
:0C031A00120DAF7F0A120DAFAE16AF1728
:1003260022120975E50B4FF50BE50AF50AE509F505
:0603360009E508F50822AC
:1006D400120D3812063F1208407FFA120A72120DE8
:1006E40047120D381206651208401207101207103F
:1006F4007F011209751208827F0D120DAF7F0A1255
:0B0704000DAF120D477B007A00792634
:10070F0022E4FF1209751208827F0D120DAF7F0AC6
:04071F00120DAF22E6
:100D19000814080704040700DFE90406010280C07B
:0C0D7200438920759850758DFFD28E22A9
:10088200E4FDEF75F00A84E5F02430FE741E2DF8C5
:10089200A606EF75F00A84FE7010C3ED648094839F
:1008A2005008741F2DF8E4F68006AF060DBD03D282
:1008B2007B007A00791E1209AC7B007A00791E0255
:0208C2000B1613
:060B16008B218A228923D5
:100B1C00E4FFAB21AA22A9238F8275830012002740
:0C0B2C00600AF5993099FDC2990F80E62F
:010B3800229A
:080DAF008F993099FDC29922D1
:080DB7003098FDC298AF9922AB
:010DD00057CB
:070DBF00900DD0E493FF2228
:100B39008F4B8D4C8B4D120D38120DBFE4FD1208F1
:100B490040AF4B120A72AF4C120A72AF4D120A72C1
:030B5900020D4743
:080DA6008B318A3289338D3450
:010DAE002222
:10093D00E4F550F54EE4F54FAB50AD4FAF4E120B05
:10094D0039635001AF4E1208827F20120DAF7F0A1E
:10095D00120C0F054FE54FC394FF40DC054EE54EDD
:07096D00C3940F40D07F008E
:010974002260
:100A1200E4F553E4F554AD54AF53120BBB12088204
:100A22007F20120DAF0554E554C394FF40E87F0DBB
:100A3200120DAF7F0A120DAF0553E553D3940F4049
:010A4200D2E1
:010A43002290
:100C5C00120D38120DBF7D011208407F011209756B
:070C6C008F59120D47AF592B
:010C7300225E
:040BBB008F558D566F
:100BBF00120D38120DBFE4FD120840AF55120A7224
:080BCF00AF56120A72120C5C11
:010BD70022FB
:100C7400120C8C7D017F0A120ACA7D017F0C120AB4
:080C8400CA7D077F0B020ACABA
:100C8C00755A01E4FDAF5A120ACA055AC3E55A64F3
:050C9C0080948940EE88
:010CA1002230
:100ACA00C2B6E4FEEF3392B7D2B5EF25E0FFC2B566
:100ADA000EBE08F0E4FEED3392B7D2B5ED25E0FD87
:080AEA00C2B50EBE08F0D2B641
:010AF20022E1
:100CB600EF75F00A84C454F0FEEF75F00A84EE2551
:030CC600F0FF221A
:0F0D5600EFC4540F75F00AA4FEEF540F2EFF22C6
:10072300120D38E4FD7F68120840E4FF120A7212CA
:100733000D47120D387D017F68120840E4F55BE434
:10074300FF120761055BC3E55B6480948740F07F1C
:0D07530001120761120D477B007A00792B1F
:0F07600022120975120D56742B255BF8A607227D
:0608C4008B3E8A3F8940D3
:1008CA00120D387D017F68120840E4FF120A72E4B3
:1008DA00F541AB3EAA3FA940AE02AF01EF4E60150B
:1008EA00AF41EF3395E08F82F583120027FF120A9A
:0808FA0072054180DD020D478B
:1004720002076FE493A3F8E493A34003F68001F22A
:1004820008DFF48029E493A3F85407240CC8C3338B
:10049200C4540F4420C8834004F456800146F6DF5A
:1004A200E4800B0102040810204080900C43E47E9B
:1004B200019360BCA3FF543F30E509541FFEE4934F
:1004C200A360010ECF54C025E060A840B8E493A316
:1004D200FAE493A3F8E493A3C8C582C8CAC583CA41
:1004E200F0A3C8C582C8CAC583CADFE9DEE780BEF9
:010C5B000098
:10000E00BB010689828A83E0225002E722BBFE02F0
:09001E00E32289828A83E4932223
:10002700BB010CE58229F582E5833AF583E022508E
:1000370006E92582F8E622BBFE06E92582F8E222D8
:0D004700E58229F582E5833AF583E49322F2
:10005400F8BB010DE58229F582E5833AF583E8F0E2
:10006400225006E92582C8F622BBFE05E92582C88E
:02007400F22276
:10007600E88FF0A4CC8BF0A42CFCE98EF0A42CFC29
:100086008AF0EDA42CFCEA8EF0A4CDA8F08BF0A4A7
:100096002DCC3825F0FDE98FF0A42CCD35F0FCEB06
:1000A6008EF0A4FEA9F0EB8FF0A4CFC5F02ECD39CB
:0F00B600FEE43CFCEAA42DCE35F0FDE43CFC2238
:1007BA00C2D5E830E70FB2D5E4C39BFBE49AFAE46A
:1007CA0099F9E498F8EC30E717B2D51207F012015C
:1007DA0028E4C39BFBE49AFAE499F9E498F88003C5
:1007EA0012012830D50DE4C39FFFE49EFEE49DFD6F
:0407FA00E49CFC225D
:1000C500E86010ECA2E713FCED13FDEE13FEEF1351
:0400D500FFD8F0223E
:1000D900E8600FEFC333FFEE33FEED33FDEC33FC85
:0300E900D8F12229
:1000EC0075F008758200EF2FFFEE33FECD33CDCCCB
:1000FC0033CCC58233C5829BED9AEC99E58298404E
:10010C000CF582EE9BFEED9AFDEC99FC0FD5F0D62A
:10011C00E4CEFBE4CDFAE4CCF9A88222B800C1B954
:10012C000059BA002DEC8BF084CFCECDFCE5F0CB92
:10013C00F97818EF2FFFEE33FEED33FDEC33FCEBCB
:10014C0033FB10D703994004EB99FB0FD8E5E4F986
:10015C00FA227818EF2FFFEE33FEED33FDEC33FC73
:10016C00C933C910D7059BE99A4007EC9BFCE99A67
:10017C00F90FD8E0E4C9FAE4CCFB2275F010EF2FAC
:10018C00FFEE33FEED33FDCC33CCC833C810D707AC
:10019C009BEC9AE899400AED9BFDEC9AFCE899F8E7
:0E01AC000FD5F0DAE4CDFBE4CCFAE4C8F9227A
:00000001FF
