:03000000020E836A
:0C0E8300787FE4F6D8FD758127020ADCB8
:100D9D002050505050685061000814080704040793
:090DAD0000DFE90406010280C028
:090EB0007BFF7A0D799D020D3DD6
:100CBB001208EF8B0B8A0C890D1208872402FF1286
:100CCB000B1EE4FF120DCA7F20120DCAAB0BAA0C30
:0E0CDB00A90D120887FF120B1E7F25020DCAFD
:10080000900DB4E493FF120D15120A4B8B088A0960
:10081000890A90000212087F7F3A120DCA900001E7
:100820001208657F3A120DCAAB08AA09A90A120874
:1008300087FF120B1E7F20120DCA120CBB900DB544
:10084000E493FF120D1590000412086512087390CE
:10085000000512087F1208739000061208A0FF120C
:050860000B1E020EB0AA
:10086500AB08AA09A90A1208A0FF120B1E227F2FA6
:10087500120DCAAB08AA09A90A221208A0FF120B79
:020885001E2231
:100ADC00120ECF120E76120C17C291120ECA7BFF99
:100AEC007A0D79A6E4FD120BDC900DB2E493FF12A3
:100AFC000D15120800120B0E7FFF120D83120B0E38
:100B0C0080E77FFF120D837FFF120D837FFF120D95
:020B1C00832232
:100E28000814080704040700DFE90406010280C06B
:0F0E5800AB11AA12A9138514827583000208A09A
:100C17007F0F120D837F38120C437F0E120C437F18
:100C270006120D157F01120E167F01120E16900E79
:100C370034E493FF120D157F02020D83120D157F09
:0A0C470001120E167F01120E162294
:060BDC008B088A09890A5A
:100BE200ED75F008A42440FF120D15E4F50BAB08D7
:100BF200AA09A90AAF0BEF3395E08F82F583120899
:100C0200A0FF120DCA050BC3E50B6480948840DE79
:050C12007F80020D15BA
:100D15008FA0C293D294900E34E4936F6006A3E43F
:100D250093B507077F02120D83800A7F01120E1605
:080D35007F01120E16C2942288
:100DCA008FA0D293D2947F01120E167F01120E16B3
:030DDA00C294229E
:060D3D008B118A128913DC
:100D4300E4F514120E58FF6013B40A05120DB680B1
:0C0D530007120E58FF120DCA051480E7AD
:010D5F002271
:100B1E00E4FDEF75F00A84E5F02430FE740E2DF836
:100B2E00A606EF75F00A84FE7010C3ED6480948300
:100B3E005008740F2DF8E4F68006AF060DBD03D2F3
:100B4E007B007A00790E120C877B007A00790E02F8
:020B5E000D3D4B
:060C87008B118A12891393
:100C8D00E4FFEFC39D5026AB11AA12A9138F821258
:100C9D000E61FE8D82120E618F827583001208CD5A
:0D0CAD008D82758300EE1208CD0F1D80D5DD
:010CBA002217
:100DB600200005900E378003900E36E493FF120D47
:040DC60015B2002240
:0B0E9B00E50E131313541F240FF82260
:1008EF00C2877F14120D83D2872087FD3087FD20AA
:1008FF0087FDE4F50E120E9BC000E625E0D000F652
:10090F003087FD7F01120E1630870ED283120E9B99
:10091F00E64401F6C2832087FD050EE50EC3942839
:10092F0040D3E50F2511FFE433FE7C00EFB5130B29
:10093F00ECB506077B007A00790F227B007AFF79EE
:01094F00FFA8
:010950002284
:100E38000814080704040700DFE90406010280C05B
:0D0E7600D288D2A8D2AFD28AD2AAC29122CD
:090EB900209203D29122C2912281
:030003000209519E
:10095100C0E0C0F0C083C08263A201C083C082C076
:10096100D075D000C000C001C002C003C004C005E2
:04097100C006C007F5
:10097500209215C2917516007FC8120D830516E5E4
:0809850016C3941940F2D2914F
:10098D00D007D006D005D004D003D002D001D000BE
:10099D00D0D0D082D08363A201D082D083D0F0D0CA
:0209AD00E03236
:03000B000209AF38
:1009AF00C0E0C0F0C083C08263A201C083C082C018
:1009BF00D075D000C000C001C002C003C004C00584
:1009CF00C006C007900E44E493FF120D15D007D058
:1009DF0006D005D004D003D002D001D000D0D0D0A3
:0F09EF0082D08363A201D082D083D0F0D0E032D7
:040ECF004389012230
:100D8300E4FEEEC39F5010758CFC758A17D28C302D
:090D93008DFDC28D0E80EBC28CB7
:010D9C002234
:100E16008F17758CFF758AF8D28C308DFDC28CC207
:020E26008D221B
:010ED30022FC
:010ED40022FB
:100E48000814080704040700DFE90406010280C04B
:050ECA00D282D2832258
:100DDD00D282D2837F01120E16C2827F01120E16AD
:030DED00C283229C
:100DF000C283C2827F01120E16D2837F01120E16A9
:030E0000D2822279
:0409FE008F0C8D0DC0
:100A0200750E01E50C25E0F50C33120A3A050EC30A
:100A1200E50E6480948840EBE50D24FF120A3AD279
:100A2200827F01120E16D283A282E433F50F7F0178
:070A3200120E16C283AF0F84
:100A39002292827F01120E16D2837F01120E16C2F4
:020A4900832206
:020A97008F0CC2
:100A9900E4F50ED282F50DE50E25E0F50E120ACF2A
:100AA900A282E433420EC283050DC3E50D6480942E
:100AB9008840E4E50CB40104D2828002C282120AA1
:050AC900CFC283AF0E57
:0E0ACE00227F01120E16D2837F01120E162215
:020B60008F0CF8
:100B6200E4F50DE50C25E0F50C3392827F01120EBF
:100B720016D2837F01120E16C283050DC3E50D64E2
:100B820080948840DED2827F01120E16D283A28226
:0B0B9200E433F50E7F01120E16C28343
:010B9D002235
:100CE900752508120DDDE4FDAF251209FE8F2612C8
:100CF9000DF0E526700AAF25120B1E7F20120DCAD2
:0B0D09000525C3E525648094F840D860
:010D140022BC
:100E0300EF75F00A84C454F0FEEF75F00A84EE2502
:030E1300F0FF22CB
:0F0E6700EFC4540F75F00AA4FEEF540F2EFF22B4
:100C5100120DDDE4FD7F681209FE7F11120B601297
:100C61000DF0120DDD7D017F681209FEE4FF120A0D
:100C7100977527007F01120A97EF4227120DF07A2C
:050C810000A9277B0023
:010C8600224B
:100A4B00120DDDE4FD7F681209FEE4FF120B60124C
:100A5B000DF0120DDD7D017F681209FEE4F50BE54B
:100A6B000BB406047F018002E4FF120A97120E6793
:100A7B007418250BF8A607050BC3E50B6480948748
:0B0A8B0040DD120DF07B007A007918AE
:010A9600223D
:060B9E008B1E8A1F892056
:100BA400120DDD7D017F681209FEE4FF120B60E483
:100BB400F521AB1EAA1FA920AE02AF01EF4E6015AE
:100BC400AF21EF3395E08F82F5831208A0FF120B5B
:080BD40060052180DD020DF037
:0C0E8F00438920759850758DFDD28E228D
:060D60008B228A23892486
:100D6600E4FFAB22AA23A9248F827583001208A070
:0C0D7600600AF5993099FDC2990F80E6E3
:010D8200224E
:080EC2008F993099FDC29922BD
:0A0EA600209804C29880F9AF992249
:10088700BB010689828A83E0225002E722BBFE026F
:09089700E32289828A83E49322A2
:1008A000BB010CE58229F582E5833AF583E022500D
:1008B00006E92582F8E622BBFE06E92582F8E22257
:0D08C000E58229F582E5833AF583E4932271
:1008CD00F8BB010DE58229F582E5833AF583E8F061
:1008DD00225006E92582C8F622BBFE05E92582C80D
:0208ED00F222F5
:00000001FF
