:03000000020800F3
:0C080000787FE4F6D8FD758112020847ED
:0E09BF0048656C6C6F2C20576F726C642100C1
:0309CD0001110114
:04097E00C29011DB37
:0D098200E4F508F5097BFF7A0979BF118CB7
:02098F0080F1F5
:0709D000011001020E0000FE
:1008DB00AF1031A1C28075A038C2817F327E00314A
:1008EB0091D2817F327E00319175A006C2817F3219
:1008FB007E003191D2817F327E00319175A00FC283
:0F090B00817F327E003191D2817F327E00219137
:0F09A100C2808FA0C2817F327E003191D281222D
:0F09B000D2808FA0C2817F327E003191D281220E
:0309FF00B2902291
:0E09DB0030910AD2907F327E003191C290227C
:06088C008B0A8A0B890CA7
:10089200E4F50DD280F50DAB0AAA0BA90C850D82E9
:1008A200758300311AFFFD3395E0FCE50DC39DEC25
:1008B2006480F874809850047E0180027E00EE60AD
:1008C200168FA0C2817F327E003191D2817F327E2B
:0908D200003191050D80C0216781
:10096700E50F450E70067FC031A180047F8031A15D
:07097700630FFF630EFF2276
:010A020022D1
:10094700E4FDFCC3ED9FEC9E5015E4FBFA0BBB00E6
:0F095700010AEB64644A70F50DBD00010C80E4E9
:01096600226E
:0909F600C290D290C290D290226E
:0309D70001120109
:010A030022D0
:0D09E9002091093093067FE87E03314722FC
:010A040022CF
:10099100D289D28CD28AD28C308DFDC28DC28C226A
:10080C0002097EE493A3F8E493A34003F68001F27B
:10081C0008DFF48029E493A3F85407240CC8C333ED
:10082C00C4540F4420C8834004F456800146F6DFBC
:10083C00E4800B01020408102040809009CDE47E76
:10084C00019360BCA3FF543F30E509541FFEE493B1
:10085C00A360010ECF54C025E060A840B8E493A378
:10086C00FAE493A3F8E493A3C8C582C8CAC583CAA3
:10087C00F0A3C8C582C8CAC583CADFE9DEE780BE5B
:0109DA00001C
:10091A00BB010CE58229F582E5833AF583E0225092
:10092A0006E92582F8E622BBFE06E92582F8E222DC
:0D093A00E58229F582E5833AF583E49322F6
:00000001FF
