:03000000020746AE
:0C074600787FE4F6D8FD75814C02078D29
:080F8A00081408070404070025
:100E9E00AB09AA0AA90B850C827583001202A9FF61
:010EAE002221
:100C3A007F0F120E537F38120C68120016120C57CF
:100C4A00120C577F01120C687F02020E537F0E129C
:0E0C5A000C681200167F06120C68120016229B
:060B26008B088A09890A10
:100B2C00ED75F008A42440FF120C68E4F50BAB083B
:100B3C00AA09A90AAF0BEF3395E08F82F583120255
:100B4C00A9FF120CE4050BC3E50B6480948840DE0E
:050B5C007F80020C681F
:100C68008F0D850DA0C293D294120016C294E50D83
:100C780064016011E50D6402600BE50D6480600598
:0B0C8800E50DB4C0057F04120E5322DE
:100CE4008F0D850DA0D293D294120016C294E50DF7
:100CF400C39430400CE50DD3943950057F03120E94
:070D04005312001602001655
:060DBD008B098A0A890B74
:100DC300E4F50C120E9E6012B40A05120EF28006B0
:0A0DD300120E9E120CE4050C80E9DC
:010DDD0022F3
:060FB800120A6C020DBDDF
:0F0EF2002000047FC080027F80120C68B20022B3
:090F8100081408070404070057D6
:100D0B001209998B318A3289331205BBEE3395E088
:100D1B008F3D8E3CF53BF53A12001E8F398E388D88
:060D2B00378C36020D9B1F
:1007D200D201120FCF120F49120006120C3AC29127
:1007E200120FCA120AEA120D317BFF7A0F7981E4E5
:1007F200FD120B26120DFD7DF57F64120E387DF47D
:100802007FFF120E3812047B120D0B120891120E8A
:100812006D300004C200054CA290300101B34005C6
:10082200B201120F2E7FFA120E537FFA120E53806C
:01083200D7EE
:0B0F6100E544131313541F2445F8222D
:10083300C2877F14120E53D2872087FD3087FD2095
:1008430087FDE4F544120F61C000E6FF25E0D00008
:10085300F63087FD120EE2120F61E6FFA287E43342
:100863004FF62087FD0544E544C3942840D7E5456A
:100873002547FFE433FE7C00EFB5490BECB50607D3
:0D0883007B007A007945227B007AFF79FF27
:010890002245
:050F3D00014C00C100A1
:0D000600D288D2A8D2AFD28AD2AAC291224B
:060FBE00A292B392912201
:03001300020F6C6D
:0B0F6C00C291758D00758B00D28E3293
:03001B00020FAA27
:070FAA00D291C28FC28E320A
:03000300020FD316
:030FD300D2003217
:100D9B00D3E54C648094834003E4F54CE54C14603C
:100DAB000A14600A2402700902047B0208EE120A7C
:020DBB002922EB
:040FCF00438901222F
:100E5300E4FEEEC39F5010758CFC758A17D28C305C
:090E63008DFDC28D0E80EBC28CE6
:010E6C002263
:050016000000000022C3
:100EE200758CFF758AF1D28C308DFDC28CC28D2239
:080F9A00081408070404070015
:050FCA00D280D281225B
:080F9200D281120016C2812277
:0F0F0100D280D281120016C280120016C2812245
:0F0F1000C281C280120016D281120016D2802236
:040949008F188D195D
:10094D00C3E51A64809488500BE51A648094F840CE
:10095D00037F0222751A01E51825E0F51833928000
:10096D00120F92051AC3E51A6480948840E9E519BF
:10097D0024FF9280120F92D280120016D281A28093
:0B098D00E433F51B120016C281AF1B03
:01099800223C
:020BD5008F1877
:100BD700E4F51AD280F519E51A25E0F51AD281A2B3
:100BE70080E433421A120016C2810519C3E519645D
:100BF70080948840E2E51824FF9280120F92AF1A82
:010C070022CA
:020D55008F18F5
:100D5700E4F519E518339280120F92E51825E0F5AE
:100D6700180519C3E5196480948840E7D280020FFB
:010D770092E9
:060F4200042D0000000078
:1006B900AF24AE23AD22AC217804120454EF244EAA
:1006C900FFEE3495FEED34FFFDEC34FF22AF0BAEA7
:1006D9000AAD09AC087802020454AF17AE16AD157D
:1006E900AC14221204548F0B8E0A8D098C082278BF
:1006F900081204688F248E238D228C2122780812F7
:1007090004688F138E128D118C1022FCE4F9F80203
:100719000313AB0BAA0AA909A8080203138F178EA2
:10072900168D158C14228F0F8E0E8D0D22FEE43D31
:0D073900FDE43CFC020454E4F9F802031353
:100DFD00120E107FE0120D55120E107FB6120D550A
:0E0E0D00020F10120F01E4FD7F761209492238
:100E38008F088D09120F01E4FD7F76120949AF0969
:0B0E4800120D55AF08120D55020F10DF
:1005BB00120F01E4FD7F761209497FFA120D5512D5
:1005CB000F017D017F76120949E4FF120BD5E48FF1
:1005DB0024F523F522F521AE23AD22AC211206F82A
:1005EB00E4FF1206A3F521FC1206F87F011206A305
:1005FB00F521120F10AF24AE23AD22AC21780412DB
:10060B0004541206FD7803120454EF249CFFEE34BD
:10061B002A1206CD7B017A67120714780B12045449
:10062B008F288E278D268C251206B9FCC004C00599
:10063B00C006C0071206B9FCD003D002D001D0000F
:10064B00120313780C1204547B187AFC79FF78FF91
:10065B00120313780E1204548F2C8E2B8D2A8C2997
:10066B00E528252CFFE527352BFEE526352AFDE56C
:10067B002535298F308E2F8D2EF52DE47F05FEFD30
:10068B00FCAB30AA2FA92EA82D120313EF2480FF49
:07069B00E43E780812073667
:1006A20022120BD5E5244FFFE523FEE522FDE521CD
:0706B2008F248E238D22220C
:10001E00120F01E4FD7F761209497FF7120D55127A
:10002E000F017D017F76120949E4FF120BD5E48F93
:10003E0013F512F511F510AE12AD11AC1012070634
:10004E00E4FF12027AF510FC1207067F0112027A03
:10005E00F510120F10AF13AE12AD11AC10780412D2
:10006E00045412070BAF30AE2FAD2EAC2D7801120B
:10007E000454E42FFFEE34061206CD8F0B8E0A8D3C
:10008E0009F508FC7802120454C004C005C006C06D
:10009E00071206D6D003D002D001D0001203137877
:1000AE000B12045474FF7BF9FAF9F81203131207BA
:1000BE002F8C0CE47F76FEFDFC12071B78011204D8
:1000CE0068E50F2FFFE50E3EFEE50D3DFDE50C3C10
:1000DE0012072FF50CFC7802120454E42FFFE43EB5
:1000EE00FEED34B4FDEC340912072FF50C1206D6D2
:1000FE00C004C005C006C0071206D6D003D002D079
:10010E0001D000120313780D1204547BD07A0B1217
:10011E0007407803120454C004C005C006C0077F10
:10012E00777ED67DFF7CFF12071B7801120454D018
:10013E0003D002D001D0001202F878121206ECE4BD
:10014E00250BFFE50A3480FEE43509FDE435087B16
:10015E002B7A98120714780F1206ECEC4D4E4F7056
:10016E0005FFFEFDFC22C3E49513FFE49512FE7419
:10017E00109511FDE49510FCC004C005C006C00723
:10018E00AF0FAE0EAD0DAC0C780C120454AB07AA2B
:10019E0006A905A804D007D006D005D00412030581
:1001AE007B357A0C120740120726E4FFFEFD7C8099
:1001BE00AB17AA16A915A814C3120430AB0BAA0AC2
:1001CE00A909A8085011C0001206E37801120468AC
:1001DE00D00012039E800F1206E312039EE47B02F0
:1001EE00FAF9F81203131207261206E37803120423
:1001FE0041C004C005C006C0071206E3780312040E
:10020E0041D003D002D001D000120313780D120496
:10021E0041E47B707A17F9F8120313780C1206EC8E
:10022E001206E378021204417BF87AC679FF78FF52
:10023E00120313780D12045412072F8C0CE50B25A4
:10024E000FFFE50A350EFEE509350DFDE508350C07
:10025E00FCEF248CFFEE343C7804120736AB17AA61
:0B026E0016A915A8141202F8120726AA
:1002790022120BD5E5134FFFE512FEE511FDE5103E
:070289008F138E128D11226C
:0C0F4900438920759850758DFFD28E22D0
:060FC400120A6C020D7818
:060D78008B0A8A0B890CB6
:100D7E00E4FFAB0AAA0BA90C8F827583001202A99D
:0C0D8E00600AF5993099FDC2990F80E6CB
:010D9A002236
:080FA2008F993099FDC29922DC
:090F7700E4FF309804C298AF9920
:010F8000224E
:010FD60057C3
:070FB100900FD6E493FF222C
:100CBC008F0E8D0F8B10C2AF120F01120FB1E4FD0E
:100CCC00120949AF0E120D55AF0F120D55AF101280
:080CDC000D55120F10D2AF22DA
:100E8600120F01120FB17D011209497F01120BD514
:070E96008F10120F10AF10C6
:010E9D002232
:100E1B008F0E8D0F120F01120FB1E4FD120949AFA6
:0D0E2B000E120D55AF0F120D55120E86223E
:0F0F1F00EFC4540F75F00AA4FEEF540F2EFF22FB
:100AEA00120F01E4FD7F681209497F0A120B187F71
:100AFA000C120D55120F10120F01E4FD7F68120936
:100B0A00497F0E120B187F01120D55020F10120D9C
:0C0B1A0055120F01E4FD7F68120949220A
:10099900120F01E4FD7F68120949E4FF120D551297
:1009A9000F10120F017D017F68120949E4F508E46F
:1009B900FF1209D70508C3E5086480948740F07FD2
:0D09C900011209D7120F107B007A00793E51
:0F09D60022120BD5120F1F743E2508F8A6072218
:060AAC008B1C8A1D891E4F
:100AB200120F017D017F68120949E4FF120D55E40E
:100AC200F51FAB1CAA1DA91EAE02AF01EF4E6015A9
:100AD200AF1FEF3395E08F82F5831202A9FF120D4B
:080AE20055051F80DD020F1015
:100A6C00E4FDEF75F00A84E5F02430FE74492DF8AE
:100A7C00A606EF75F00A84FE7010C3ED64809483B3
:100A8C005008744A2DF8E4F68006AF060DBD03D26B
:0F0A9C007B007A007949120B617B007A0079495F
:010AAB002228
:060B61008B0A8A0B890CCF
:100B6700E4FFEFC39D502CAB0AAA0BA90C8F82752B
:100B770083001202A9FE8D827583001202A98F825B
:100B87007583001202D68D82758300EE1202D60F8E
:030B97001D80CFEF
:010B9A002238
:010FD70057C2
:100B9B00750908E4F508E509C394FF50127BFFAD16
:100BAB0009AF08120CBC7F0F120E53050980E7E446
:100BBB00F5090508E508D3940F40DB7F44120FA21B
:0A0BCB007F0D120FA27F0A020FA295
:100C0800E4F508E4F509AD09AF08120E1B120FC48C
:100C18007F20120FA20509E509C394FF40E87F0D64
:100C2800120FA27F0A120FA20508E508D3940F40FD
:010C3800D2E9
:010C39002298
:100C9300E4F5087B14AD08E4FF120CBC7F0F120EC1
:100CA300530508E508C3940840E97F44120FA27F67
:090CB3000D120FA27F0A020FA22C
:100E6D00120F77EF249D600D24FE600604700902B9
:090E7D000C08020B9B120C9322DD
:100DDE004D41583A20004D494E3A2000081408075C
:0F0DEE0004040700574D41582F4D494E3A20003D
:100EAF00E47B64FAF9F8AF39AE38AD37AC360209E6
:010EBF00E54D
:0C0F5500EFC3940A5005E4FF120FB8220D
:10047B007F02120C6890000212055E9000021205BA
:10048B009B7F3A120CE490000112055E9000011262
:10049B00059B7F3A120CE4AB31AA32A933120290BE
:1004AB001205A3120290FF120FB87F2012058612BD
:1004BB000FB87F2E120586AF03120F55E47B64FA3B
:1004CB00F9F8AF3DAE3CAD3BAC3A1209E5AF0312C8
:1004DB000FB8E4FF120CE47FC0120C6890000412FA
:1004EB0005729000041205AE900005120572900083
:1004FB00051205AEAB31AA32A9339000061202A940
:10050B001205A39000061202A9FF120FB87F20124A
:10051B000CE4E47BE87A03120EB3120FB8E47BE829
:10052B007A03120EB3AC00AD01AE02AF03E47B64F1
:10053B00FAF9F81209E5120FB87F2E120CE4120E1D
:10054B00AFAF03120F55120EAFAF03120FB87F20D0
:10055B00020CE4AB31AA32A9331202A9FF120F55D8
:10056B00AB31AA32A93322AB31AA32A9331202A979
:10057B00FF120F55AB31AA32A93322120CE4E47BE4
:10058B0064FAF9F8AF3DAE3CAD3BAC3A1209E5224B
:10059B001202A9FF120FB822FF120F55AB31AA326C
:1005AB00A933221202A9FF120FB87F2F120CE422DB
:1008EE007F0212093CE4FDFF120E1B120FB8E4FF4B
:1008FE00120CE47F20120CE47D01120933E4FF1286
:10090E000CE47FC012093C7D021209337F25120CC4
:10091E00E47F20120CE47D03E4FF120E1B120FB8CD
:05092E007F25020CE42E
:10093300E4FF120E1B120FB822120C687BFF7A0D14
:0609430079F3120DBD2244
:100A29007F02120C687BFF7A0D79DE120DBD750805
:100A390004120A5A948640F97FC0120C687BFF7A27
:100A49000D79E4120DBD750806120A5A948840F909
:100A590022AD08E4FF120E1B120FB80508C3E50802
:030A690064802284
:010FD80057C1
:100ED100E47B64FAF9F8AF3DAE3CAD3BAC3A0209B4
:010EE100E52B
:10089100E4F50CAD0CE4FF120E1B7408250CF8A650
:1008A10007050CC3E50C6480948440E7120ED18FD8
:1008B1000DAD0DED3395E0FCD3ED95087480F86C2A
:1008C100984005E4FD1208E2AD0DED3395E0FCC35F
:1008D100ED95097480F86C9850067D01E41208E2E8
:0D08E10022AB0DFF120CBC7F0F120E532234
:100D3100E4F535753409AD34AF35120E1BEFF460AF
:100D4100090534E534C394FF40EC0535E535D3940A
:040D51000F40E0224D
:0F0F2E00120ED1AB07AD34AF35120CBC020EC0A2
:100EC000E535D3940E4002C282E534B4FF02053505
:010ED00022FF
:100752000207D2E493A3F8E493A34003F68001F2E4
:1007620008DFF48029E493A3F85407240CC8C333A8
:10077200C4540F4420C8834004F456800146F6DF77
:10078200E4800B0102040810204080900F3DE47EBB
:10079200019360BCA3FF543F30E509541FFEE4936C
:1007A200A360010ECF54C025E060A840B8E493A333
:1007B200FAE493A3F8E493A3C8C582C8CAC583CA5E
:1007C200F0A3C8C582C8CAC583CADFE9DEE780BE16
:010F480000A8
:10029000BB010689828A83E0225002E722BBFE026C
:0902A000E32289828A83E493229F
:1002A900BB010CE58229F582E5833AF583E022500A
:1002B90006E92582F8E622BBFE06E92582F8E22254
:0D02C900E58229F582E5833AF583E493226E
:1002D600F8BB010DE58229F582E5833AF583E8F05E
:1002E600225006E92582C8F622BBFE05E92582C80A
:0202F600F222F2
:0D02F800EF2BFFEE3AFEED39FDEC38FC2255
:0E030500C3EF9BFFEE9AFEED99FDEC98FC22F3
:10031300E88FF0A4CC8BF0A42CFCE98EF0A42CFC89
:100323008AF0EDA42CFCEA8EF0A4CDA8F08BF0A407
:100333002DCC3825F0FDE98FF0A42CCD35F0FCEB66
:100343008EF0A4FEA9F0EB8FF0A4CFC5F02ECD392B
:0F035300FEE43CFCEAA42DCE35F0FDE43CFC2298
:1003620075F008758200EF2FFFEE33FECD33CDCC52
:1003720033CCC58233C5829BED9AEC99E5829840D5
:100382000CF582EE9BFEED9AFDEC99FC0FD5F0D6B2
:10039200E4CEFBE4CDFAE4CCF9A88222B800C1B9DC
:1003A2000059BA002DEC8BF084CFCECDFCE5F0CB1A
:1003B200F97818EF2FFFEE33FEED33FDEC33FCEB53
:1003C20033FB10D703994004EB99FB0FD8E5E4F90E
:1003D200FA227818EF2FFFEE33FEED33FDEC33FCFB
:1003E200C933C910D7059BE99A4007EC9BFCE99AEF
:1003F200F90FD8E0E4C9FAE4CCFB2275F010EF2F34
:10040200FFEE33FEED33FDCC33CCC833C810D70733
:100412009BEC9AE899400AED9BFDEC9AFCE899F86E
:0E0422000FD5F0DAE4CDFBE4CCFAE4C8F92201
:1009E500C2D5E830E70FB2D5E4C39BFBE49AFAE43D
:1009F50099F9E498F8EC30E717B2D5120A1B1203FF
:100A05009EE4C39BFBE49AFAE499F9E498F8800321
:100A150012039E30D50DE4C39FFFE49EFEE49DFDC9
:040A2500E49CFC222F
:10043000EB9FF5F0EA9E42F0E99D42F0E89C45F022
:010440002299
:10044100E8600FECC313FCED13FDEE13FEEF13FF99
:03045100D8F122BD
:10045400E86010ECA2E713FCED13FDEE13FEEF13BE
:04046400FFD8F022AB
:10046800E8600FEFC333FFEE33FEED33FDEC33FCF2
:03047800D8F12296
:00000001FF
