:0300000002095E94
:0C095E00787FE4F6D8FD75813C0209A505
:1009EA00010DDF010BE901097E010A7F01080101FE
:0809FA000C02010E80010FC088
:0B0B8800E4F53BF53CC290710080FEDC
:100A02000115DF0113E901117E01127F01100101BD
:080A120014020116800117C057
:100B5E00AB30AA31A932853382758300310FFF2263
:100B00007F0F712A7F38716E7F05712A7F06716EA3
:080B10007F0F716EAF10616EE2
:0D0B6E00C2808FA0C2817F96713CD281228F
:0D0B7B00D2808FA0C2817F64713CD28122A4
:030BAE00B29022E0
:060AC3008B308A318932FC
:100AC900E4F533F533715E600FB40A04714E8004A6
:080AD900715E717B053380EDB5
:010AE10022F2
:100A4B008F34E4FDEF75F00A84E5F02430FE743545
:100A5B002DF8A606EF75F00A84FE7010C3ED6480C6
:100A6B009483500874362DF8E4F68006AF060DBD5E
:100A7B0003D27B007A007935518D7B007A00793572
:020A8B0041C365
:060A8D008B388A39893A1A
:100A9300E4FFEFC39D5028AB38AA39A93A8F82757A
:100AA3008300310FFE8D82758300310F8F82758332
:0F0AB30000313C8D82758300EE313C0F1D80D3E6
:010AC2002211
:100B4E00200006AF17716E8004AF16716EB20022D0
:050BA900000000000047
:100A1A000125DF0123E901217E01227F0120010155
:080A2A0024020126800127C00F
:100B1800781B7C007D007BFF7A0B79A97E007F051E
:020B280001D0FA
:100AE200900002310FFF11F62FFFE433FE90000455
:0E0AF200310F6F7001EE60037FFF227F012243
:100A3200012DDF012BE901297E012A7F0128010115
:080A42002C02012E80012FC0DF
:010BB1002221
:0B0B93002091073093047FF4712A22A8
:010BB2002220
:0B0B9E00D289D28CD28AD28CE4FE22D5
:100B2A00719EEEC39F5008308DFDC28D0E80F3C2B8
:010B3A008C2E
:010B3B002297
:100B3C00719EEEC39F5008308CFDC28D0E80F3C2A7
:010B4C008C1C
:010B4D002285
:10096A00020B88E493A3F8E493A34003F68001F210
:10097A0008DFF48029E493A3F85407240CC8C3338E
:10098A00C4540F4420C8834004F456800146F6DF5D
:10099A00E4800B01020408102040809009EAE47EFA
:1009AA00019360BCA3FF543F30E509541FFEE49352
:1009BA00A360010ECF54C025E060A840B8E493A319
:1009CA00FAE493A3F8E493A3C8C582C8CAC583CA44
:1009DA00F0A3C8C582C8CAC583CADFE9DEE780BEFC
:010A4A0000AB
:10080000E709F608DFFA8046E709F208DFFA803EDA
:1008100088828C83E709F0A3DFFA8032E309F608C7
:10082000DFFA8078E309F208DFFA807088828C832F
:10083000E309F0A3DFFA806489828A83E0A3F608E3
:10084000DFFA805889828A83E0A3F208DFFA804CBD
:1008500080D280FA80C680D4806980F28033801094
:1008600080A680EA809A80A880DA80E280CA8033FD
:1008700089828A83ECFAE493A3C8C582C8CCC58375
:10088000CCF0A3C8C582C8CCC583CCDFE9DEE78045
:100890000D89828A83E493A3F608DFF9ECFAA9F0C4
:1008A000EDFB2289828A83ECFAE0A3C8C582C8CC1A
:1008B000C583CCF0A3C8C582C8CCC583CCDFEADE33
:1008C000E880DB89828A83E493A3F208DFF980CC95
:1008D00088F0EF60010E4E60C388F0ED2402B4048E
:1008E0000050B9F582EB2402B4040050AF23234535
:0608F00082239008507302
:1008F600BB010689828A83E0225002E722BBFE0200
:09090600E32289828A83E4932232
:10090F00BB010CE58229F582E5833AF583E022509D
:10091F0006E92582F8E622BBFE06E92582F8E222E7
:0D092F00E58229F582E5833AF583E4932201
:10093C00F8BB010DE58229F582E5833AF583E8F0F1
:10094C00225006E92582C8F622BBFE05E92582C89D
:02095C00F22285
:00000001FF
